{"abi":[{"type":"constructor","inputs":[{"name":"_poolManager","type":"address","internalType":"contract IPoolManager"}],"stateMutability":"nonpayable"},{"type":"function","name":"afterAddLiquidity","inputs":[{"name":"sender","type":"address","internalType":"address"},{"name":"key","type":"tuple","internalType":"struct PoolKey","components":[{"name":"currency0","type":"address","internalType":"Currency"},{"name":"currency1","type":"address","internalType":"Currency"},{"name":"fee","type":"uint24","internalType":"uint24"},{"name":"tickSpacing","type":"int24","internalType":"int24"},{"name":"hooks","type":"address","internalType":"contract IHooks"}]},{"name":"params","type":"tuple","internalType":"struct ModifyLiquidityParams","components":[{"name":"tickLower","type":"int24","internalType":"int24"},{"name":"tickUpper","type":"int24","internalType":"int24"},{"name":"liquidityDelta","type":"int256","internalType":"int256"},{"name":"salt","type":"bytes32","internalType":"bytes32"}]},{"name":"delta","type":"int256","internalType":"BalanceDelta"},{"name":"feesAccrued","type":"int256","internalType":"BalanceDelta"},{"name":"hookData","type":"bytes","internalType":"bytes"}],"outputs":[{"name":"","type":"bytes4","internalType":"bytes4"},{"name":"","type":"int256","internalType":"BalanceDelta"}],"stateMutability":"nonpayable"},{"type":"function","name":"afterDonate","inputs":[{"name":"sender","type":"address","internalType":"address"},{"name":"key","type":"tuple","internalType":"struct PoolKey","components":[{"name":"currency0","type":"address","internalType":"Currency"},{"name":"currency1","type":"address","internalType":"Currency"},{"name":"fee","type":"uint24","internalType":"uint24"},{"name":"tickSpacing","type":"int24","internalType":"int24"},{"name":"hooks","type":"address","internalType":"contract IHooks"}]},{"name":"amount0","type":"uint256","internalType":"uint256"},{"name":"amount1","type":"uint256","internalType":"uint256"},{"name":"hookData","type":"bytes","internalType":"bytes"}],"outputs":[{"name":"","type":"bytes4","internalType":"bytes4"}],"stateMutability":"nonpayable"},{"type":"function","name":"afterInitialize","inputs":[{"name":"sender","type":"address","internalType":"address"},{"name":"key","type":"tuple","internalType":"struct PoolKey","components":[{"name":"currency0","type":"address","internalType":"Currency"},{"name":"currency1","type":"address","internalType":"Currency"},{"name":"fee","type":"uint24","internalType":"uint24"},{"name":"tickSpacing","type":"int24","internalType":"int24"},{"name":"hooks","type":"address","internalType":"contract IHooks"}]},{"name":"sqrtPriceX96","type":"uint160","internalType":"uint160"},{"name":"tick","type":"int24","internalType":"int24"}],"outputs":[{"name":"","type":"bytes4","internalType":"bytes4"}],"stateMutability":"nonpayable"},{"type":"function","name":"afterRemoveLiquidity","inputs":[{"name":"sender","type":"address","internalType":"address"},{"name":"key","type":"tuple","internalType":"struct PoolKey","components":[{"name":"currency0","type":"address","internalType":"Currency"},{"name":"currency1","type":"address","internalType":"Currency"},{"name":"fee","type":"uint24","internalType":"uint24"},{"name":"tickSpacing","type":"int24","internalType":"int24"},{"name":"hooks","type":"address","internalType":"contract IHooks"}]},{"name":"params","type":"tuple","internalType":"struct ModifyLiquidityParams","components":[{"name":"tickLower","type":"int24","internalType":"int24"},{"name":"tickUpper","type":"int24","internalType":"int24"},{"name":"liquidityDelta","type":"int256","internalType":"int256"},{"name":"salt","type":"bytes32","internalType":"bytes32"}]},{"name":"delta","type":"int256","internalType":"BalanceDelta"},{"name":"feesAccrued","type":"int256","internalType":"BalanceDelta"},{"name":"hookData","type":"bytes","internalType":"bytes"}],"outputs":[{"name":"","type":"bytes4","internalType":"bytes4"},{"name":"","type":"int256","internalType":"BalanceDelta"}],"stateMutability":"nonpayable"},{"type":"function","name":"afterSwap","inputs":[{"name":"sender","type":"address","internalType":"address"},{"name":"key","type":"tuple","internalType":"struct PoolKey","components":[{"name":"currency0","type":"address","internalType":"Currency"},{"name":"currency1","type":"address","internalType":"Currency"},{"name":"fee","type":"uint24","internalType":"uint24"},{"name":"tickSpacing","type":"int24","internalType":"int24"},{"name":"hooks","type":"address","internalType":"contract IHooks"}]},{"name":"params","type":"tuple","internalType":"struct SwapParams","components":[{"name":"zeroForOne","type":"bool","internalType":"bool"},{"name":"amountSpecified","type":"int256","internalType":"int256"},{"name":"sqrtPriceLimitX96","type":"uint160","internalType":"uint160"}]},{"name":"delta","type":"int256","internalType":"BalanceDelta"},{"name":"hookData","type":"bytes","internalType":"bytes"}],"outputs":[{"name":"","type":"bytes4","internalType":"bytes4"},{"name":"","type":"int128","internalType":"int128"}],"stateMutability":"nonpayable"},{"type":"function","name":"beforeAddLiquidity","inputs":[{"name":"sender","type":"address","internalType":"address"},{"name":"key","type":"tuple","internalType":"struct PoolKey","components":[{"name":"currency0","type":"address","internalType":"Currency"},{"name":"currency1","type":"address","internalType":"Currency"},{"name":"fee","type":"uint24","internalType":"uint24"},{"name":"tickSpacing","type":"int24","internalType":"int24"},{"name":"hooks","type":"address","internalType":"contract IHooks"}]},{"name":"params","type":"tuple","internalType":"struct ModifyLiquidityParams","components":[{"name":"tickLower","type":"int24","internalType":"int24"},{"name":"tickUpper","type":"int24","internalType":"int24"},{"name":"liquidityDelta","type":"int256","internalType":"int256"},{"name":"salt","type":"bytes32","internalType":"bytes32"}]},{"name":"hookData","type":"bytes","internalType":"bytes"}],"outputs":[{"name":"","type":"bytes4","internalType":"bytes4"}],"stateMutability":"nonpayable"},{"type":"function","name":"beforeDonate","inputs":[{"name":"sender","type":"address","internalType":"address"},{"name":"key","type":"tuple","internalType":"struct PoolKey","components":[{"name":"currency0","type":"address","internalType":"Currency"},{"name":"currency1","type":"address","internalType":"Currency"},{"name":"fee","type":"uint24","internalType":"uint24"},{"name":"tickSpacing","type":"int24","internalType":"int24"},{"name":"hooks","type":"address","internalType":"contract IHooks"}]},{"name":"amount0","type":"uint256","internalType":"uint256"},{"name":"amount1","type":"uint256","internalType":"uint256"},{"name":"hookData","type":"bytes","internalType":"bytes"}],"outputs":[{"name":"","type":"bytes4","internalType":"bytes4"}],"stateMutability":"nonpayable"},{"type":"function","name":"beforeInitialize","inputs":[{"name":"sender","type":"address","internalType":"address"},{"name":"key","type":"tuple","internalType":"struct PoolKey","components":[{"name":"currency0","type":"address","internalType":"Currency"},{"name":"currency1","type":"address","internalType":"Currency"},{"name":"fee","type":"uint24","internalType":"uint24"},{"name":"tickSpacing","type":"int24","internalType":"int24"},{"name":"hooks","type":"address","internalType":"contract IHooks"}]},{"name":"sqrtPriceX96","type":"uint160","internalType":"uint160"}],"outputs":[{"name":"","type":"bytes4","internalType":"bytes4"}],"stateMutability":"nonpayable"},{"type":"function","name":"beforeRemoveLiquidity","inputs":[{"name":"sender","type":"address","internalType":"address"},{"name":"key","type":"tuple","internalType":"struct PoolKey","components":[{"name":"currency0","type":"address","internalType":"Currency"},{"name":"currency1","type":"address","internalType":"Currency"},{"name":"fee","type":"uint24","internalType":"uint24"},{"name":"tickSpacing","type":"int24","internalType":"int24"},{"name":"hooks","type":"address","internalType":"contract IHooks"}]},{"name":"params","type":"tuple","internalType":"struct ModifyLiquidityParams","components":[{"name":"tickLower","type":"int24","internalType":"int24"},{"name":"tickUpper","type":"int24","internalType":"int24"},{"name":"liquidityDelta","type":"int256","internalType":"int256"},{"name":"salt","type":"bytes32","internalType":"bytes32"}]},{"name":"hookData","type":"bytes","internalType":"bytes"}],"outputs":[{"name":"","type":"bytes4","internalType":"bytes4"}],"stateMutability":"nonpayable"},{"type":"function","name":"beforeSwap","inputs":[{"name":"sender","type":"address","internalType":"address"},{"name":"key","type":"tuple","internalType":"struct PoolKey","components":[{"name":"currency0","type":"address","internalType":"Currency"},{"name":"currency1","type":"address","internalType":"Currency"},{"name":"fee","type":"uint24","internalType":"uint24"},{"name":"tickSpacing","type":"int24","internalType":"int24"},{"name":"hooks","type":"address","internalType":"contract IHooks"}]},{"name":"params","type":"tuple","internalType":"struct SwapParams","components":[{"name":"zeroForOne","type":"bool","internalType":"bool"},{"name":"amountSpecified","type":"int256","internalType":"int256"},{"name":"sqrtPriceLimitX96","type":"uint160","internalType":"uint160"}]},{"name":"hookData","type":"bytes","internalType":"bytes"}],"outputs":[{"name":"","type":"bytes4","internalType":"bytes4"},{"name":"","type":"int256","internalType":"BeforeSwapDelta"},{"name":"","type":"uint24","internalType":"uint24"}],"stateMutability":"nonpayable"},{"type":"function","name":"calculateDynamicFee","inputs":[{"name":"key","type":"tuple","internalType":"struct PoolKey","components":[{"name":"currency0","type":"address","internalType":"Currency"},{"name":"currency1","type":"address","internalType":"Currency"},{"name":"fee","type":"uint24","internalType":"uint24"},{"name":"tickSpacing","type":"int24","internalType":"int24"},{"name":"hooks","type":"address","internalType":"contract IHooks"}]}],"outputs":[{"name":"","type":"uint24","internalType":"uint24"}],"stateMutability":"view"},{"type":"function","name":"dynamicFees","inputs":[{"name":"","type":"bytes32","internalType":"PoolId"}],"outputs":[{"name":"currentFee","type":"uint24","internalType":"uint24"},{"name":"baseFee","type":"uint24","internalType":"uint24"},{"name":"lastUpdate","type":"uint256","internalType":"uint256"},{"name":"volatilityScore","type":"uint256","internalType":"uint256"},{"name":"mevRiskScore","type":"uint256","internalType":"uint256"}],"stateMutability":"view"},{"type":"function","name":"encryptLPPosition","inputs":[{"name":"","type":"tuple","internalType":"struct PoolKey","components":[{"name":"currency0","type":"address","internalType":"Currency"},{"name":"currency1","type":"address","internalType":"Currency"},{"name":"fee","type":"uint24","internalType":"uint24"},{"name":"tickSpacing","type":"int24","internalType":"int24"},{"name":"hooks","type":"address","internalType":"contract IHooks"}]},{"name":"","type":"tuple","internalType":"struct ModifyLiquidityParams","components":[{"name":"tickLower","type":"int24","internalType":"int24"},{"name":"tickUpper","type":"int24","internalType":"int24"},{"name":"liquidityDelta","type":"int256","internalType":"int256"},{"name":"salt","type":"bytes32","internalType":"bytes32"}]},{"name":"","type":"bytes","internalType":"bytes"}],"outputs":[{"name":"","type":"bytes32","internalType":"bytes32"}],"stateMutability":"pure"},{"type":"function","name":"getCurrentMEVRiskScore","inputs":[{"name":"poolId","type":"bytes32","internalType":"PoolId"}],"outputs":[{"name":"","type":"uint256","internalType":"uint256"}],"stateMutability":"pure"},{"type":"function","name":"getDynamicFeeData","inputs":[{"name":"poolId","type":"bytes32","internalType":"PoolId"}],"outputs":[{"name":"","type":"tuple","internalType":"struct ICipherFlowHook.DynamicFeeData","components":[{"name":"currentFee","type":"uint24","internalType":"uint24"},{"name":"baseFee","type":"uint24","internalType":"uint24"},{"name":"lastUpdate","type":"uint256","internalType":"uint256"},{"name":"volatilityScore","type":"uint256","internalType":"uint256"},{"name":"mevRiskScore","type":"uint256","internalType":"uint256"}]}],"stateMutability":"view"},{"type":"function","name":"getEncryptedPosition","inputs":[{"name":"","type":"bytes32","internalType":"bytes32"},{"name":"","type":"bytes32","internalType":"bytes32"}],"outputs":[{"name":"","type":"bytes","internalType":"bytes"}],"stateMutability":"pure"},{"type":"function","name":"getHookPermissions","inputs":[],"outputs":[{"name":"","type":"tuple","internalType":"struct Hooks.Permissions","components":[{"name":"beforeInitialize","type":"bool","internalType":"bool"},{"name":"afterInitialize","type":"bool","internalType":"bool"},{"name":"beforeAddLiquidity","type":"bool","internalType":"bool"},{"name":"afterAddLiquidity","type":"bool","internalType":"bool"},{"name":"beforeRemoveLiquidity","type":"bool","internalType":"bool"},{"name":"afterRemoveLiquidity","type":"bool","internalType":"bool"},{"name":"beforeSwap","type":"bool","internalType":"bool"},{"name":"afterSwap","type":"bool","internalType":"bool"},{"name":"beforeDonate","type":"bool","internalType":"bool"},{"name":"afterDonate","type":"bool","internalType":"bool"},{"name":"beforeSwapReturnDelta","type":"bool","internalType":"bool"},{"name":"afterSwapReturnDelta","type":"bool","internalType":"bool"},{"name":"afterAddLiquidityReturnDelta","type":"bool","internalType":"bool"},{"name":"afterRemoveLiquidityReturnDelta","type":"bool","internalType":"bool"}]}],"stateMutability":"pure"},{"type":"function","name":"getMEVProtectionConfig","inputs":[{"name":"poolId","type":"bytes32","internalType":"PoolId"}],"outputs":[{"name":"","type":"tuple","internalType":"struct ICipherFlowHook.MEVProtectionConfig","components":[{"name":"volatilityThreshold","type":"uint256","internalType":"uint256"},{"name":"baseFeeMultiplier","type":"uint256","internalType":"uint256"},{"name":"maxFeeMultiplier","type":"uint256","internalType":"uint256"},{"name":"mevDetectionWindow","type":"uint256","internalType":"uint256"},{"name":"isEnabled","type":"bool","internalType":"bool"},{"name":"lastUpdate","type":"uint256","internalType":"uint256"}]}],"stateMutability":"view"},{"type":"function","name":"getPoolHealthMetrics","inputs":[{"name":"poolId","type":"bytes32","internalType":"PoolId"}],"outputs":[{"name":"totalLiquidity","type":"uint256","internalType":"uint256"},{"name":"currentVolatility","type":"uint256","internalType":"uint256"},{"name":"mevRiskScore","type":"uint256","internalType":"uint256"},{"name":"rewardPool","type":"uint256","internalType":"uint256"},{"name":"isHealthy","type":"bool","internalType":"bool"}],"stateMutability":"view"},{"type":"function","name":"getUserPositions","inputs":[{"name":"user","type":"address","internalType":"address"}],"outputs":[{"name":"","type":"bytes32[]","internalType":"bytes32[]"}],"stateMutability":"pure"},{"type":"function","name":"mevConfigs","inputs":[{"name":"","type":"bytes32","internalType":"PoolId"}],"outputs":[{"name":"volatilityThreshold","type":"uint256","internalType":"uint256"},{"name":"baseFeeMultiplier","type":"uint256","internalType":"uint256"},{"name":"maxFeeMultiplier","type":"uint256","internalType":"uint256"},{"name":"mevDetectionWindow","type":"uint256","internalType":"uint256"},{"name":"isEnabled","type":"bool","internalType":"bool"},{"name":"lastUpdate","type":"uint256","internalType":"uint256"}],"stateMutability":"view"},{"type":"function","name":"poolManager","inputs":[],"outputs":[{"name":"","type":"address","internalType":"contract IPoolManager"}],"stateMutability":"view"},{"type":"function","name":"submitEncryptedOrder","inputs":[{"name":"","type":"tuple","internalType":"struct ICipherFlowHook.EncryptedOrder","components":[{"name":"encryptedAmount","type":"tuple","internalType":"struct FhenixDemo.euint256","components":[{"name":"value","type":"uint256","internalType":"uint256"},{"name":"initialized","type":"bool","internalType":"bool"}]},{"name":"encryptedMinOut","type":"tuple","internalType":"struct FhenixDemo.euint256","components":[{"name":"value","type":"uint256","internalType":"uint256"},{"name":"initialized","type":"bool","internalType":"bool"}]},{"name":"encryptedDeadline","type":"tuple","internalType":"struct FhenixDemo.euint64","components":[{"name":"value","type":"uint64","internalType":"uint64"},{"name":"initialized","type":"bool","internalType":"bool"}]},{"name":"swapper","type":"address","internalType":"address"},{"name":"poolId","type":"bytes32","internalType":"PoolId"},{"name":"isExactInput","type":"bool","internalType":"bool"}]}],"outputs":[{"name":"","type":"bytes32","internalType":"bytes32"}],"stateMutability":"pure"},{"type":"function","name":"updateMEVProtectionConfig","inputs":[{"name":"poolId","type":"bytes32","internalType":"PoolId"},{"name":"config","type":"tuple","internalType":"struct ICipherFlowHook.MEVProtectionConfig","components":[{"name":"volatilityThreshold","type":"uint256","internalType":"uint256"},{"name":"baseFeeMultiplier","type":"uint256","internalType":"uint256"},{"name":"maxFeeMultiplier","type":"uint256","internalType":"uint256"},{"name":"mevDetectionWindow","type":"uint256","internalType":"uint256"},{"name":"isEnabled","type":"bool","internalType":"bool"},{"name":"lastUpdate","type":"uint256","internalType":"uint256"}]}],"outputs":[],"stateMutability":"nonpayable"},{"type":"event","name":"DynamicFeeUpdated","inputs":[{"name":"poolId","type":"bytes32","indexed":true,"internalType":"PoolId"},{"name":"oldFee","type":"uint24","indexed":false,"internalType":"uint24"},{"name":"newFee","type":"uint24","indexed":false,"internalType":"uint24"},{"name":"reason","type":"string","indexed":false,"internalType":"string"},{"name":"volatilityScore","type":"uint256","indexed":false,"internalType":"uint256"}],"anonymous":false},{"type":"event","name":"LiquidityEncrypted","inputs":[{"name":"poolId","type":"bytes32","indexed":true,"internalType":"PoolId"},{"name":"provider","type":"address","indexed":true,"internalType":"address"},{"name":"positionId","type":"bytes32","indexed":true,"internalType":"bytes32"},{"name":"timestamp","type":"uint256","indexed":false,"internalType":"uint256"}],"anonymous":false},{"type":"event","name":"MEVProtectionConfigUpdated","inputs":[{"name":"poolId","type":"bytes32","indexed":true,"internalType":"PoolId"},{"name":"config","type":"tuple","indexed":false,"internalType":"struct ICipherFlowHook.MEVProtectionConfig","components":[{"name":"volatilityThreshold","type":"uint256","internalType":"uint256"},{"name":"baseFeeMultiplier","type":"uint256","internalType":"uint256"},{"name":"maxFeeMultiplier","type":"uint256","internalType":"uint256"},{"name":"mevDetectionWindow","type":"uint256","internalType":"uint256"},{"name":"isEnabled","type":"bool","internalType":"bool"},{"name":"lastUpdate","type":"uint256","internalType":"uint256"}]},{"name":"updater","type":"address","indexed":true,"internalType":"address"}],"anonymous":false},{"type":"event","name":"OrderBatchSubmitted","inputs":[{"name":"batchId","type":"bytes32","indexed":true,"internalType":"bytes32"},{"name":"orderCount","type":"uint256","indexed":false,"internalType":"uint256"},{"name":"submitter","type":"address","indexed":true,"internalType":"address"}],"anonymous":false},{"type":"event","name":"PoolInitializedWithCipher","inputs":[{"name":"poolId","type":"bytes32","indexed":true,"internalType":"PoolId"},{"name":"config","type":"tuple","indexed":false,"internalType":"struct ICipherFlowHook.MEVProtectionConfig","components":[{"name":"volatilityThreshold","type":"uint256","internalType":"uint256"},{"name":"baseFeeMultiplier","type":"uint256","internalType":"uint256"},{"name":"maxFeeMultiplier","type":"uint256","internalType":"uint256"},{"name":"mevDetectionWindow","type":"uint256","internalType":"uint256"},{"name":"isEnabled","type":"bool","internalType":"bool"},{"name":"lastUpdate","type":"uint256","internalType":"uint256"}]},{"name":"timestamp","type":"uint256","indexed":false,"internalType":"uint256"}],"anonymous":false},{"type":"event","name":"SwapRoutedToAVS","inputs":[{"name":"poolId","type":"bytes32","indexed":true,"internalType":"PoolId"},{"name":"batchId","type":"bytes32","indexed":true,"internalType":"bytes32"},{"name":"swapper","type":"address","indexed":true,"internalType":"address"},{"name":"mevRiskScore","type":"uint256","indexed":false,"internalType":"uint256"}],"anonymous":false},{"type":"error","name":"AVSSubmissionFailed","inputs":[]},{"type":"error","name":"EncryptionFailed","inputs":[]},{"type":"error","name":"ExcessiveSwapSize","inputs":[]},{"type":"error","name":"HookNotImplemented","inputs":[]},{"type":"error","name":"InsufficientLiquidity","inputs":[]},{"type":"error","name":"InvalidFeeConfiguration","inputs":[]},{"type":"error","name":"InvalidPoolKey","inputs":[]},{"type":"error","name":"InvalidVolatilityData","inputs":[]},{"type":"error","name":"MEVProtectionNotEnabled","inputs":[]},{"type":"error","name":"NotPoolManager","inputs":[]},{"type":"error","name":"ToxicOrderFlow","inputs":[]},{"type":"error","name":"UnauthorizedAccess","inputs":[]}],"bytecode":{"object":"0x60a060405234801561000f575f5ffd5b5060405161163838038061163883398101604081905261002e9161003f565b6001600160a01b031660805261006c565b5f6020828403121561004f575f5ffd5b81516001600160a01b0381168114610065575f5ffd5b9392505050565b6080516115756100c35f395f818161064f01528181610738015281816107950152818161080d01528181610870015281816108d40152818161096501528181610a4b01528181610aab0152610b0e01526115755ff3fe608060405234801561000f575f5ffd5b5060043610610153575f3560e01c8063994e7e2f116100bf578063b6a8b0fa11610079578063b6a8b0fa1461052f578063be4bbcf314610542578063c4e833ce14610556578063dc4c90d31461064a578063dc98354e14610689578063e1b4af691461052f575f5ffd5b8063994e7e2f146104225780639f063efc14610450578063a2000daa14610463578063a7e912af14610484578063a83d2fda146104e2578063b47b2fb1146104f9575f5ffd5b80635eb710c3116101105780635eb710c31461027f5780636c2bbe7e146102f65780636fe7e6eb14610329578063821401fb1461033c5780638258beec14610388578063929f8dad146103fb575f5ffd5b80630129dad31461015757806321d0ee70146101c0578063259982e5146101ec5780632a6bc2dd146101ff57806348a90f101461022c578063575e24b414610241575b5f5ffd5b61016a610165366004610ddb565b61069c565b6040516101b791905f60c0820190508251825260208301516020830152604083015160408301526060830151606083015260808301511515608083015260a083015160a083015292915050565b60405180910390f35b6101d36101ce366004610e84565b61072c565b6040516001600160e01b031990911681526020016101b7565b6101d36101fa366004610e84565b610789565b61021f61020d366004610efb565b50604080515f81526020810190915290565b6040516101b79190610f1d565b61023f61023a366004610f5f565b6107e0565b005b61025461024f366004610fa4565b6107ff565b604080516001600160e01b03199094168452602084019290925262ffffff16908201526060016101b7565b6102c761028d366004610ddb565b5f60208190529081526040902080546001820154600283015460038401546004850154600590950154939492939192909160ff9091169086565b6040805196875260208701959095529385019290925260608401521515608083015260a082015260c0016101b7565b610309610304366004610ffe565b610863565b604080516001600160e01b031990931683526020830191909152016101b7565b6101d361033736600461109a565b6108c8565b61035e61034a366004610ddb565b50620f4240906101f4906064905f90600190565b6040805195865260208601949094529284019190915260608301521515608082015260a0016101b7565b6103cc610396366004610ddb565b600160208190525f9182526040909120805491810154600282015460039092015462ffffff808516946301000000900416929085565b6040805162ffffff9687168152959094166020860152928401919091526060830152608082015260a0016101b7565b61040e6104093660046110f1565b610923565b60405162ffffff90911681526020016101b7565b61044361043036600461110b565b505060408051602081019091525f815290565b6040516101b7919061112b565b61030961045e366004610ffe565b610958565b610476610471366004611160565b505f90565b6040519081526020016101b7565b610497610492366004610ddb565b6109b1565b6040516101b791905f60a08201905062ffffff835116825262ffffff602084015116602083015260408301516040830152606083015160608301526080830151608083015292915050565b6104766104f036600461117a565b5f949350505050565b61050c6105073660046111db565b610a3e565b604080516001600160e01b03199093168352600f9190910b6020830152016101b7565b6101d361053d36600461125c565b610a9f565b610476610550366004610ddb565b50606490565b61063d604080516101c0810182525f80825260208201819052918101829052606081018290526080810182905260a0810182905260c0810182905260e08101829052610100810182905261012081018290526101408101829052610160810182905261018081018290526101a081019190915250604080516101c081018252600180825260208201819052918101829052606081018290526080810182905260a0810182905260c0810182905260e08101919091525f610100820181905261012082018190526101408201819052610160820181905261018082018190526101a082015290565b6040516101b791906112b6565b6106717f000000000000000000000000000000000000000000000000000000000000000081565b6040516001600160a01b0390911681526020016101b7565b6101d36106973660046113d7565b610b02565b6106d16040518060c001604052805f81526020015f81526020015f81526020015f81526020015f151581526020015f81525090565b505f9081526020818152604091829020825160c0810184528154815260018201549281019290925260028101549282019290925260038201546060820152600482015460ff161515608082015260059091015460a082015290565b5f336001600160a01b037f000000000000000000000000000000000000000000000000000000000000000016146107765760405163570c108560e11b815260040160405180910390fd5b63021d0ee760e41b5b9695505050505050565b5f336001600160a01b037f000000000000000000000000000000000000000000000000000000000000000016146107d35760405163570c108560e11b815260040160405180910390fd5b63259982e560e01b61077f565b5f82815260208190526040902081906107f9828261141e565b50505050565b5f8080336001600160a01b037f0000000000000000000000000000000000000000000000000000000000000000161461084b5760405163570c108560e11b815260040160405180910390fd5b506315d7892d60e21b975f9750879650945050505050565b5f80336001600160a01b037f000000000000000000000000000000000000000000000000000000000000000016146108ae5760405163570c108560e11b815260040160405180910390fd5b633615df3f60e11b5f5b9150915097509795505050505050565b5f336001600160a01b037f000000000000000000000000000000000000000000000000000000000000000016146109125760405163570c108560e11b815260040160405180910390fd5b636fe7e6eb60e01b95945050505050565b5f8061093e6109373685900385018561148c565b60a0902090565b5f9081526001602052604090205462ffffff169392505050565b5f80336001600160a01b037f000000000000000000000000000000000000000000000000000000000000000016146109a35760405163570c108560e11b815260040160405180910390fd5b6327c18fbf60e21b5f6108b8565b6109e86040518060a001604052805f62ffffff1681526020015f62ffffff1681526020015f81526020015f81526020015f81525090565b505f90815260016020818152604092839020835160a081018552815462ffffff80821683526301000000909104169281019290925291820154928101929092526002810154606083015260030154608082015290565b5f80336001600160a01b037f00000000000000000000000000000000000000000000000000000000000000001614610a895760405163570c108560e11b815260040160405180910390fd5b5063b47b2fb160e01b975f975095505050505050565b5f336001600160a01b037f00000000000000000000000000000000000000000000000000000000000000001614610ae95760405163570c108560e11b815260040160405180910390fd5b610af7878787878787610b5f565b979650505050505050565b5f336001600160a01b037f00000000000000000000000000000000000000000000000000000000000000001614610b4c5760405163570c108560e11b815260040160405180910390fd5b610b57848484610b79565b949350505050565b5f604051630a85dc2960e01b815260040160405180910390fd5b5f80610b8d6109373686900386018661148c565b6040805160c0810182526103e881526064602080830191825260c883850190815261012c60608086019182526001608087018181524260a0808a019182525f8c815297889052968a9020985189559651918801919091559251600287015590516003860155905160048501805460ff1916911515919091179055915160059093019290925582519182018352929350918291610c2d918801908801611526565b62ffffff168152602001610c476060870160408801611526565b62ffffff9081168252426020808401919091525f6040808501829052606094850182905286825260018084528183208751815489870151881663010000000265ffffffffffff1990911691909716179590951785558682015190850155938501516002808501919091556080909501516003909301929092558251828152808201808552868452949091529190209051610ce19290610d7e565b50807f2a64a29b85d986233cfb5b7192dabaf3ce8412a10dd458d00e2bc5d62bbbcbef5f5f8481526020019081526020015f2042604051610d6592919082548152600183015460208201526002830154604082015260038301546060820152600483015460ff161515608082015260059092015460a083015260c082015260e00190565b60405180910390a250636e4c1aa760e11b949350505050565b828054828255905f5260205f20908101928215610db7579160200282015b82811115610db7578251825591602001919060010190610d9c565b50610dc3929150610dc7565b5090565b5b80821115610dc3575f8155600101610dc8565b5f60208284031215610deb575f5ffd5b5035919050565b6001600160a01b0381168114610e06575f5ffd5b50565b8035610e1481610df2565b919050565b5f60a08284031215610e29575f5ffd5b50919050565b5f60808284031215610e29575f5ffd5b5f5f83601f840112610e4f575f5ffd5b50813567ffffffffffffffff811115610e66575f5ffd5b602083019150836020828501011115610e7d575f5ffd5b9250929050565b5f5f5f5f5f6101608688031215610e99575f5ffd5b8535610ea481610df2565b9450610eb38760208801610e19565b9350610ec28760c08801610e2f565b925061014086013567ffffffffffffffff811115610ede575f5ffd5b610eea88828901610e3f565b969995985093965092949392505050565b5f60208284031215610f0b575f5ffd5b8135610f1681610df2565b9392505050565b602080825282518282018190525f918401906040840190835b81811015610f54578351835260209384019390920191600101610f36565b509095945050505050565b5f5f82840360e0811215610f71575f5ffd5b8335925060c0601f1982011215610f86575f5ffd5b506020830190509250929050565b5f60608284031215610e29575f5ffd5b5f5f5f5f5f6101408688031215610fb9575f5ffd5b8535610fc481610df2565b9450610fd38760208801610e19565b9350610fe28760c08801610f94565b925061012086013567ffffffffffffffff811115610ede575f5ffd5b5f5f5f5f5f5f5f6101a0888a031215611015575f5ffd5b873561102081610df2565b965061102f8960208a01610e19565b955061103e8960c08a01610e2f565b94506101408801359350610160880135925061018088013567ffffffffffffffff81111561106a575f5ffd5b6110768a828b01610e3f565b989b979a50959850939692959293505050565b8035600281900b8114610e14575f5ffd5b5f5f5f5f61010085870312156110ae575f5ffd5b84356110b981610df2565b93506110c88660208701610e19565b925060c08501356110d881610df2565b91506110e660e08601611089565b905092959194509250565b5f60a08284031215611101575f5ffd5b610f168383610e19565b5f5f6040838503121561111c575f5ffd5b50508035926020909101359150565b602081525f82518060208401528060208501604085015e5f604082850101526040601f19601f83011684010191505092915050565b5f610120828403128015611172575f5ffd5b509092915050565b5f5f5f5f610140858703121561118e575f5ffd5b6111988686610e19565b93506111a78660a08701610e2f565b925061012085013567ffffffffffffffff8111156111c3575f5ffd5b6111cf87828801610e3f565b95989497509550505050565b5f5f5f5f5f5f61016087890312156111f1575f5ffd5b86356111fc81610df2565b955061120b8860208901610e19565b945061121a8860c08901610f94565b9350610120870135925061014087013567ffffffffffffffff81111561123e575f5ffd5b61124a89828a01610e3f565b979a9699509497509295939492505050565b5f5f5f5f5f5f6101208789031215611272575f5ffd5b863561127d81610df2565b955061128c8860208901610e19565b945060c0870135935060e0870135925061010087013567ffffffffffffffff81111561123e575f5ffd5b8151151581526101c0810160208301516112d4602084018215159052565b5060408301516112e8604084018215159052565b5060608301516112fc606084018215159052565b506080830151611310608084018215159052565b5060a083015161132460a084018215159052565b5060c083015161133860c084018215159052565b5060e083015161134c60e084018215159052565b5061010083015161136261010084018215159052565b5061012083015161137861012084018215159052565b5061014083015161138e61014084018215159052565b506101608301516113a461016084018215159052565b506101808301516113ba61018084018215159052565b506101a08301516113d06101a084018215159052565b5092915050565b5f5f5f60e084860312156113e9575f5ffd5b83356113f481610df2565b92506114038560208601610e19565b915060c084013561141381610df2565b809150509250925092565b8135815560208201356001820155604082013560028201556060820135600382015560808201358015158114611452575f5ffd5b60048201805491151560ff1660ff199290921691909117905560a09190910135600590910155565b803562ffffff81168114610e14575f5ffd5b5f60a082840312801561149d575f5ffd5b5060405160a0810167ffffffffffffffff811182821017156114cd57634e487b7160e01b5f52604160045260245ffd5b6040526114d983610e09565b81526114e760208401610e09565b60208201526114f86040840161147a565b604082015261150960608401611089565b606082015261151a60808401610e09565b60808201529392505050565b5f60208284031215611536575f5ffd5b610f168261147a56fea2646970667358221220a54c8b1208f8ba949053d3b9d9927378128547524f479128429d9ae1087cf46a64736f6c634300081b0033","linkReferences":{}},"methodIdentifiers":{"afterAddLiquidity(address,(address,address,uint24,int24,address),(int24,int24,int256,bytes32),int256,int256,bytes)":"9f063efc","afterDonate(address,(address,address,uint24,int24,address),uint256,uint256,bytes)":"e1b4af69","afterInitialize(address,(address,address,uint24,int24,address),uint160,int24)":"6fe7e6eb","afterRemoveLiquidity(address,(address,address,uint24,int24,address),(int24,int24,int256,bytes32),int256,int256,bytes)":"6c2bbe7e","afterSwap(address,(address,address,uint24,int24,address),(bool,int256,uint160),int256,bytes)":"b47b2fb1","beforeAddLiquidity(address,(address,address,uint24,int24,address),(int24,int24,int256,bytes32),bytes)":"259982e5","beforeDonate(address,(address,address,uint24,int24,address),uint256,uint256,bytes)":"b6a8b0fa","beforeInitialize(address,(address,address,uint24,int24,address),uint160)":"dc98354e","beforeRemoveLiquidity(address,(address,address,uint24,int24,address),(int24,int24,int256,bytes32),bytes)":"21d0ee70","beforeSwap(address,(address,address,uint24,int24,address),(bool,int256,uint160),bytes)":"575e24b4","calculateDynamicFee((address,address,uint24,int24,address))":"929f8dad","dynamicFees(bytes32)":"8258beec","encryptLPPosition((address,address,uint24,int24,address),(int24,int24,int256,bytes32),bytes)":"a83d2fda","getCurrentMEVRiskScore(bytes32)":"be4bbcf3","getDynamicFeeData(bytes32)":"a7e912af","getEncryptedPosition(bytes32,bytes32)":"994e7e2f","getHookPermissions()":"c4e833ce","getMEVProtectionConfig(bytes32)":"0129dad3","getPoolHealthMetrics(bytes32)":"821401fb","getUserPositions(address)":"2a6bc2dd","mevConfigs(bytes32)":"5eb710c3","poolManager()":"dc4c90d3","submitEncryptedOrder(((uint256,bool),(uint256,bool),(uint64,bool),address,bytes32,bool))":"a2000daa","updateMEVProtectionConfig(bytes32,(uint256,uint256,uint256,uint256,bool,uint256))":"48a90f10"},"id":96}