{"abi":[{"type":"constructor","inputs":[{"name":"_manager","type":"address","internalType":"contract IPoolManager"}],"stateMutability":"nonpayable"},{"type":"function","name":"addLiquidity","inputs":[{"name":"poolKey","type":"tuple","internalType":"struct PoolKey","components":[{"name":"currency0","type":"address","internalType":"Currency"},{"name":"currency1","type":"address","internalType":"Currency"},{"name":"fee","type":"uint24","internalType":"uint24"},{"name":"tickSpacing","type":"int24","internalType":"int24"},{"name":"hooks","type":"address","internalType":"contract IHooks"}]},{"name":"params","type":"tuple","internalType":"struct ModifyLiquidityParams","components":[{"name":"tickLower","type":"int24","internalType":"int24"},{"name":"tickUpper","type":"int24","internalType":"int24"},{"name":"liquidityDelta","type":"int256","internalType":"int256"},{"name":"salt","type":"bytes32","internalType":"bytes32"}]},{"name":"salt","type":"bytes32","internalType":"bytes32"}],"outputs":[],"stateMutability":"nonpayable"},{"type":"function","name":"exactInputSingle","inputs":[{"name":"params","type":"tuple","internalType":"struct SwapParams","components":[{"name":"zeroForOne","type":"bool","internalType":"bool"},{"name":"amountSpecified","type":"int256","internalType":"int256"},{"name":"sqrtPriceLimitX96","type":"uint160","internalType":"uint160"}]},{"name":"poolKey","type":"tuple","internalType":"struct PoolKey","components":[{"name":"currency0","type":"address","internalType":"Currency"},{"name":"currency1","type":"address","internalType":"Currency"},{"name":"fee","type":"uint24","internalType":"uint24"},{"name":"tickSpacing","type":"int24","internalType":"int24"},{"name":"hooks","type":"address","internalType":"contract IHooks"}]},{"name":"recipient","type":"bytes","internalType":"bytes"}],"outputs":[],"stateMutability":"nonpayable"},{"type":"function","name":"manager","inputs":[],"outputs":[{"name":"","type":"address","internalType":"contract IPoolManager"}],"stateMutability":"view"},{"type":"function","name":"removeLiquidity","inputs":[{"name":"poolKey","type":"tuple","internalType":"struct PoolKey","components":[{"name":"currency0","type":"address","internalType":"Currency"},{"name":"currency1","type":"address","internalType":"Currency"},{"name":"fee","type":"uint24","internalType":"uint24"},{"name":"tickSpacing","type":"int24","internalType":"int24"},{"name":"hooks","type":"address","internalType":"contract IHooks"}]},{"name":"params","type":"tuple","internalType":"struct ModifyLiquidityParams","components":[{"name":"tickLower","type":"int24","internalType":"int24"},{"name":"tickUpper","type":"int24","internalType":"int24"},{"name":"liquidityDelta","type":"int256","internalType":"int256"},{"name":"salt","type":"bytes32","internalType":"bytes32"}]},{"name":"salt","type":"bytes32","internalType":"bytes32"}],"outputs":[],"stateMutability":"nonpayable"},{"type":"error","name":"SwapFailed","inputs":[]}],"bytecode":{"object":"0x60a060405234801561000f575f5ffd5b506040516109fd3803806109fd83398101604081905261002e9161003f565b6001600160a01b031660805261006c565b5f6020828403121561004f575f5ffd5b81516001600160a01b0381168114610065575f5ffd5b9392505050565b6080516109656100985f395f81816068015281816101090152818161025b015261032b01526109655ff3fe608060405234801561000f575f5ffd5b506004361061004a575f3560e01c80633a703f601461004e578063481c6a7514610063578063a2b76aa7146100a6578063ca79b699146100b9575b5f5ffd5b61006161005c3660046105e7565b6100cc565b005b61008a7f000000000000000000000000000000000000000000000000000000000000000081565b6040516001600160a01b03909116815260200160405180910390f35b6100616100b43660046105e7565b61021e565b6100616100c73660046106d5565b610328565b604080513360601b6bffffffffffffffffffffffff19166020820152815160148183030181526034820192839052632d35e7ed60e11b9092525f917f00000000000000000000000000000000000000000000000000000000000000006001600160a01b031691635a6bcfda9161014891889188916038016107e2565b60408051808303815f875af1158015610163573d5f5f3e3d5ffd5b505050506040513d601f19601f820116820180604052508101906101879190610839565b5090506101d56040518060400160405280602081526020017f4c6971756964697479206164646564202d2044656c746120616d6f756e74303a8152506101cd8360801d90565b600f0b610469565b6102186040518060400160405280602081526020017f4c6971756964697479206164646564202d2044656c746120616d6f756e74313a8152506101cd83600f0b90565b50505050565b604080513360601b6bffffffffffffffffffffffff19166020820152815160148183030181526034820192839052632d35e7ed60e11b9092525f917f00000000000000000000000000000000000000000000000000000000000000006001600160a01b031691635a6bcfda9161029a91889188916038016107e2565b60408051808303815f875af11580156102b5573d5f5f3e3d5ffd5b505050506040513d601f19601f820116820180604052508101906102d99190610839565b50905061030260405180606001604052806022815260200161090e602291396101cd8360801d90565b6102186040518060600160405280602281526020016108ec602291396101cd83600f0b90565b5f7f00000000000000000000000000000000000000000000000000000000000000006001600160a01b031663f3cd914c8587868660405160200161036d92919061085b565b6040516020818303038152906040526040518463ffffffff1660e01b815260040161039a9392919061086a565b6020604051808303815f875af11580156103b6573d5f5f3e3d5ffd5b505050506040513d601f19601f820116820180604052508101906103da91906108b3565b905061041f6040518060400160405280601e81526020017f53776170206578656375746564202d2044656c746120616d6f756e74303a00008152506101cd8360801d90565b6104626040518060400160405280601e81526020017f53776170206578656375746564202d2044656c746120616d6f756e74313a00008152506101cd83600f0b90565b5050505050565b6104ae828260405160240161047f9291906108ca565b60408051601f198184030181529190526020810180516001600160e01b0316631e53134760e11b1790526104b2565b5050565b6104bb816104be565b50565b5f6a636f6e736f6c652e6c6f6790505f5f835160208501845afa505050565b6040516060810167ffffffffffffffff8111828210171561050c57634e487b7160e01b5f52604160045260245ffd5b60405290565b6001600160a01b03811681146104bb575f5ffd5b8035600281900b8114610537575f5ffd5b919050565b5f60a0828403121561054c575f5ffd5b60405160a0810167ffffffffffffffff8111828210171561057b57634e487b7160e01b5f52604160045260245ffd5b604052905080823561058c81610512565b8152602083013561059c81610512565b6020820152604083013562ffffff811681146105b6575f5ffd5b60408201526105c760608401610526565b606082015260808301356105da81610512565b6080919091015292915050565b5f5f5f8385036101408112156105fb575f5ffd5b610605868661053c565b93506080609f1982011215610618575f5ffd5b506040516080810167ffffffffffffffff8111828210171561064857634e487b7160e01b5f52604160045260245ffd5b60405261065760a08601610526565b815261066560c08601610526565b602082015260e085013560408201526101008501356060820152929592945050506101209091013590565b5f5f83601f8401126106a0575f5ffd5b50813567ffffffffffffffff8111156106b7575f5ffd5b6020830191508360208285010111156106ce575f5ffd5b9250929050565b5f5f5f5f8486036101208112156106ea575f5ffd5b60608112156106f7575f5ffd5b506107006104dd565b8535801515811461070f575f5ffd5b815260208681013590820152604086013561072981610512565b6040820152935061073d866060870161053c565b925061010085013567ffffffffffffffff811115610759575f5ffd5b61076587828801610690565b95989497509550505050565b80516001600160a01b03908116835260208083015182169084015260408083015162ffffff169084015260608083015160020b9084015260809182015116910152565b5f81518084528060208401602086015e5f602082860101526020601f19601f83011685010191505092915050565b6107ec8185610771565b825160020b60a0820152602083015160020b60c0820152604083015160e082015260608301516101008201526101406101208201525f6108306101408301846107b4565b95945050505050565b5f5f6040838503121561084a575f5ffd5b505080516020909101519092909150565b818382375f9101908152919050565b6108748185610771565b8251151560a0820152602083015160c082015260408301516001600160a01b031660e082015261012061010082018190525f90610830908301846107b4565b5f602082840312156108c3575f5ffd5b5051919050565b604081525f6108dc60408301856107b4565b9050826020830152939250505056fe4c69717569646974792072656d6f766564202d2044656c746120616d6f756e74313a4c69717569646974792072656d6f766564202d2044656c746120616d6f756e74303aa26469706673582212203a3f0981a2ccfc7b38f14dbabaac77a5e7c44a6592b5c4bcb7456d657401255564736f6c634300081b0033","linkReferences":{}},"methodIdentifiers":{"addLiquidity((address,address,uint24,int24,address),(int24,int24,int256,bytes32),bytes32)":"3a703f60","exactInputSingle((bool,int256,uint160),(address,address,uint24,int24,address),bytes)":"ca79b699","manager()":"481c6a75","removeLiquidity((address,address,uint24,int24,address),(int24,int24,int256,bytes32),bytes32)":"a2b76aa7"},"id":117}