{"abi":[{"type":"constructor","inputs":[{"name":"_delegation","type":"address","internalType":"contract IDelegationManager"},{"name":"_pauserRegistry","type":"address","internalType":"contract IPauserRegistry"},{"name":"_version","type":"string","internalType":"string"}],"stateMutability":"nonpayable"},{"type":"function","name":"OPERATOR_AVS_REGISTRATION_TYPEHASH","inputs":[],"outputs":[{"name":"","type":"bytes32","internalType":"bytes32"}],"stateMutability":"view"},{"type":"function","name":"OPERATOR_SET_FORCE_DEREGISTRATION_TYPEHASH","inputs":[],"outputs":[{"name":"","type":"bytes32","internalType":"bytes32"}],"stateMutability":"view"},{"type":"function","name":"OPERATOR_SET_REGISTRATION_TYPEHASH","inputs":[],"outputs":[{"name":"","type":"bytes32","internalType":"bytes32"}],"stateMutability":"view"},{"type":"function","name":"avsOperatorStatus","inputs":[{"name":"avs","type":"address","internalType":"address"},{"name":"operator","type":"address","internalType":"address"}],"outputs":[{"name":"","type":"uint8","internalType":"enum IAVSDirectoryTypes.OperatorAVSRegistrationStatus"}],"stateMutability":"view"},{"type":"function","name":"calculateOperatorAVSRegistrationDigestHash","inputs":[{"name":"operator","type":"address","internalType":"address"},{"name":"avs","type":"address","internalType":"address"},{"name":"salt","type":"bytes32","internalType":"bytes32"},{"name":"expiry","type":"uint256","internalType":"uint256"}],"outputs":[{"name":"","type":"bytes32","internalType":"bytes32"}],"stateMutability":"view"},{"type":"function","name":"cancelSalt","inputs":[{"name":"salt","type":"bytes32","internalType":"bytes32"}],"outputs":[],"stateMutability":"nonpayable"},{"type":"function","name":"delegation","inputs":[],"outputs":[{"name":"","type":"address","internalType":"contract IDelegationManager"}],"stateMutability":"view"},{"type":"function","name":"deregisterOperatorFromAVS","inputs":[{"name":"operator","type":"address","internalType":"address"}],"outputs":[],"stateMutability":"nonpayable"},{"type":"function","name":"domainSeparator","inputs":[],"outputs":[{"name":"","type":"bytes32","internalType":"bytes32"}],"stateMutability":"view"},{"type":"function","name":"initialize","inputs":[{"name":"initialOwner","type":"address","internalType":"address"},{"name":"initialPausedStatus","type":"uint256","internalType":"uint256"}],"outputs":[],"stateMutability":"nonpayable"},{"type":"function","name":"operatorSaltIsSpent","inputs":[{"name":"operator","type":"address","internalType":"address"},{"name":"salt","type":"bytes32","internalType":"bytes32"}],"outputs":[{"name":"isSpent","type":"bool","internalType":"bool"}],"stateMutability":"view"},{"type":"function","name":"owner","inputs":[],"outputs":[{"name":"","type":"address","internalType":"address"}],"stateMutability":"view"},{"type":"function","name":"pause","inputs":[{"name":"newPausedStatus","type":"uint256","internalType":"uint256"}],"outputs":[],"stateMutability":"nonpayable"},{"type":"function","name":"pauseAll","inputs":[],"outputs":[],"stateMutability":"nonpayable"},{"type":"function","name":"paused","inputs":[{"name":"index","type":"uint8","internalType":"uint8"}],"outputs":[{"name":"","type":"bool","internalType":"bool"}],"stateMutability":"view"},{"type":"function","name":"paused","inputs":[],"outputs":[{"name":"","type":"uint256","internalType":"uint256"}],"stateMutability":"view"},{"type":"function","name":"pauserRegistry","inputs":[],"outputs":[{"name":"","type":"address","internalType":"contract IPauserRegistry"}],"stateMutability":"view"},{"type":"function","name":"registerOperatorToAVS","inputs":[{"name":"operator","type":"address","internalType":"address"},{"name":"operatorSignature","type":"tuple","internalType":"struct ISignatureUtilsMixinTypes.SignatureWithSaltAndExpiry","components":[{"name":"signature","type":"bytes","internalType":"bytes"},{"name":"salt","type":"bytes32","internalType":"bytes32"},{"name":"expiry","type":"uint256","internalType":"uint256"}]}],"outputs":[],"stateMutability":"nonpayable"},{"type":"function","name":"renounceOwnership","inputs":[],"outputs":[],"stateMutability":"nonpayable"},{"type":"function","name":"transferOwnership","inputs":[{"name":"newOwner","type":"address","internalType":"address"}],"outputs":[],"stateMutability":"nonpayable"},{"type":"function","name":"unpause","inputs":[{"name":"newPausedStatus","type":"uint256","internalType":"uint256"}],"outputs":[],"stateMutability":"nonpayable"},{"type":"function","name":"updateAVSMetadataURI","inputs":[{"name":"metadataURI","type":"string","internalType":"string"}],"outputs":[],"stateMutability":"nonpayable"},{"type":"function","name":"version","inputs":[],"outputs":[{"name":"","type":"string","internalType":"string"}],"stateMutability":"view"},{"type":"event","name":"AVSMetadataURIUpdated","inputs":[{"name":"avs","type":"address","indexed":true,"internalType":"address"},{"name":"metadataURI","type":"string","indexed":false,"internalType":"string"}],"anonymous":false},{"type":"event","name":"Initialized","inputs":[{"name":"version","type":"uint8","indexed":false,"internalType":"uint8"}],"anonymous":false},{"type":"event","name":"OperatorAVSRegistrationStatusUpdated","inputs":[{"name":"operator","type":"address","indexed":true,"internalType":"address"},{"name":"avs","type":"address","indexed":true,"internalType":"address"},{"name":"status","type":"uint8","indexed":false,"internalType":"enum IAVSDirectoryTypes.OperatorAVSRegistrationStatus"}],"anonymous":false},{"type":"event","name":"OwnershipTransferred","inputs":[{"name":"previousOwner","type":"address","indexed":true,"internalType":"address"},{"name":"newOwner","type":"address","indexed":true,"internalType":"address"}],"anonymous":false},{"type":"event","name":"Paused","inputs":[{"name":"account","type":"address","indexed":true,"internalType":"address"},{"name":"newPausedStatus","type":"uint256","indexed":false,"internalType":"uint256"}],"anonymous":false},{"type":"event","name":"Unpaused","inputs":[{"name":"account","type":"address","indexed":true,"internalType":"address"},{"name":"newPausedStatus","type":"uint256","indexed":false,"internalType":"uint256"}],"anonymous":false},{"type":"error","name":"CurrentlyPaused","inputs":[]},{"type":"error","name":"InputAddressZero","inputs":[]},{"type":"error","name":"InvalidNewPausedStatus","inputs":[]},{"type":"error","name":"InvalidShortString","inputs":[]},{"type":"error","name":"InvalidSignature","inputs":[]},{"type":"error","name":"OnlyPauser","inputs":[]},{"type":"error","name":"OnlyUnpauser","inputs":[]},{"type":"error","name":"OperatorAlreadyRegisteredToAVS","inputs":[]},{"type":"error","name":"OperatorNotRegisteredToAVS","inputs":[]},{"type":"error","name":"OperatorNotRegisteredToEigenLayer","inputs":[]},{"type":"error","name":"SaltSpent","inputs":[]},{"type":"error","name":"SignatureExpired","inputs":[]},{"type":"error","name":"StringTooLong","inputs":[{"name":"str","type":"string","internalType":"string"}]}],"bytecode":{"object":"0x60e060405234801561000f575f5ffd5b5060405161185938038061185983398101604081905261002e916101b3565b808084846001600160a01b038116610059576040516339b190bb60e11b815260040160405180910390fd5b6001600160a01b039081166080521660a0526100748161008a565b60c0525061008290506100d0565b5050506102e4565b5f5f829050601f815111156100bd578260405163305a27a960e01b81526004016100b49190610289565b60405180910390fd5b80516100c8826102be565b179392505050565b5f54610100900460ff16156101375760405162461bcd60e51b815260206004820152602760248201527f496e697469616c697a61626c653a20636f6e747261637420697320696e697469604482015266616c697a696e6760c81b60648201526084016100b4565b5f5460ff90811614610186575f805460ff191660ff9081179091556040519081527f7f26b83ff96e1f2b6a682f133852f6798a09c465da95921460cefb38474024989060200160405180910390a15b565b6001600160a01b038116811461019c575f5ffd5b50565b634e487b7160e01b5f52604160045260245ffd5b5f5f5f606084860312156101c5575f5ffd5b83516101d081610188565b60208501519093506101e181610188565b60408501519092506001600160401b038111156101fc575f5ffd5b8401601f8101861361020c575f5ffd5b80516001600160401b038111156102255761022561019f565b604051601f8201601f19908116603f011681016001600160401b03811182821017156102535761025361019f565b60405281815282820160200188101561026a575f5ffd5b8160208401602083015e5f602083830101528093505050509250925092565b602081525f82518060208401528060208501604085015e5f604082850101526040601f19601f83011684010191505092915050565b805160208083015191908110156102de575f198160200360031b1b821691505b50919050565b60805160a05160c05161152f61032a5f395f81816104240152610d4d01525f8181610360015261053901525f818161023c01528181610ac90152610dbc015261152f5ff3fe608060405234801561000f575f5ffd5b5060043610610148575f3560e01c8063a1060c88116100bf578063dce974b911610079578063dce974b914610334578063df5cf7231461035b578063ec76f44214610382578063f2fde38b146103b5578063f698da25146103c8578063fabc1cbc146103d0575f5ffd5b8063a1060c881461029a578063a364f4da146102ad578063a98fb355146102c0578063c825fe68146102d3578063cd6dc687146102fa578063d79aceab1461030d575f5ffd5b80635ac86ab7116101105780635ac86ab7146101fa5780635c975abb1461021d578063715018a61461022f578063886f1195146102375780638da5cb5b146102765780639926ee7d14610287575f5ffd5b8063136439dd1461014c578063374823b51461016157806349075da3146101a357806354fd4d50146101dd578063595c6a67146101f2575b5f5ffd5b61015f61015a3660046110dc565b6103e3565b005b61018e61016f366004611107565b609960209081525f928352604080842090915290825290205460ff1681565b60405190151581526020015b60405180910390f35b6101d06101b1366004611131565b609860209081525f928352604080842090915290825290205460ff1681565b60405161019a919061117c565b6101e561041d565b60405161019a91906111d0565b61015f61044d565b61018e6102083660046111e9565b606654600160ff9092169190911b9081161490565b6066545b60405190815260200161019a565b61015f610461565b61025e7f000000000000000000000000000000000000000000000000000000000000000081565b6040516001600160a01b03909116815260200161019a565b6033546001600160a01b031661025e565b61015f610295366004611277565b610472565b6102216102a8366004611364565b610673565b61015f6102bb3660046113a7565b6106f2565b61015f6102ce3660046113c2565b6107b9565b6102217f809c5ac049c45b7a7f050a20f00c16cf63797efbf8b1eb8d749fdfa39ff8f92981565b61015f610308366004611107565b610800565b6102217fda2c89bafdd34776a2b8bb9c83c82f419e20cc8c67207f70edd58249b92661bd81565b6102217f4ee65f64218c67b68da66fd0db16560040a6b973290b9e71912d661ee53fe49581565b61025e7f000000000000000000000000000000000000000000000000000000000000000081565b61015f6103903660046110dc565b335f90815260996020908152604080832093835292905220805460ff19166001179055565b61015f6103c33660046113a7565b61091c565b610221610995565b61015f6103de3660046110dc565b610a4e565b6103eb610ab4565b60665481811681146104105760405163c61dca5d60e01b815260040160405180910390fd5b61041982610b57565b5050565b60606104487f0000000000000000000000000000000000000000000000000000000000000000610b94565b905090565b610455610ab4565b61045f5f19610b57565b565b610469610bd1565b61045f5f610c2b565b5f61047c81610c7c565b6001335f9081526098602090815260408083206001600160a01b038816845290915290205460ff1660018111156104b5576104b5611168565b036104d357604051631aa528bb60e11b815260040160405180910390fd5b6001600160a01b0383165f90815260996020908152604080832085830151845290915290205460ff161561051a57604051630d4c4c9160e21b815260040160405180910390fd5b6040516336b87bd760e11b81526001600160a01b0384811660048301527f00000000000000000000000000000000000000000000000000000000000000001690636d70f7ae90602401602060405180830381865afa15801561057e573d5f5f3e3d5ffd5b505050506040513d601f19601f820116820180604052508101906105a29190611430565b6105bf57604051639f88c8af60e01b815260040160405180910390fd5b6105e3836105d7853386602001518760400151610673565b84516040860151610ca7565b6001600160a01b0383165f81815260996020908152604080832086830151845282528083208054600160ff19918216811790925533808652609885528386208787529094529382902080549094168117909355519092917ff0952b1c65271d819d39983d2abb044b9cace59bcc4d4dd389f586ebdcb15b4191610666919061117c565b60405180910390a3505050565b604080517fda2c89bafdd34776a2b8bb9c83c82f419e20cc8c67207f70edd58249b92661bd60208201526001600160a01b038087169282019290925290841660608201526080810183905260a081018290525f906106e99060c00160405160208183030381529060405280519060200120610cff565b95945050505050565b5f6106fc81610c7c565b6001335f9081526098602090815260408083206001600160a01b038716845290915290205460ff16600181111561073557610735611168565b14610753576040516352df45c960e01b815260040160405180910390fd5b335f8181526098602090815260408083206001600160a01b0387168085529252808320805460ff191690555190917ff0952b1c65271d819d39983d2abb044b9cace59bcc4d4dd389f586ebdcb15b41916107ad919061117c565b60405180910390a35050565b336001600160a01b03167fa89c1dc243d8908a96dd84944bcc97d6bc6ac00dd78e20621576be6a3c94371383836040516107f492919061144f565b60405180910390a25050565b5f54610100900460ff161580801561081e57505f54600160ff909116105b806108375750303b15801561083757505f5460ff166001145b61089f5760405162461bcd60e51b815260206004820152602e60248201527f496e697469616c697a61626c653a20636f6e747261637420697320616c72656160448201526d191e481a5b9a5d1a585b1a5e995960921b60648201526084015b60405180910390fd5b5f805460ff1916600117905580156108c0575f805461ff0019166101001790555b6108c982610b57565b6108d283610c2b565b8015610917575f805461ff0019169055604051600181527f7f26b83ff96e1f2b6a682f133852f6798a09c465da95921460cefb38474024989060200160405180910390a15b505050565b610924610bd1565b6001600160a01b0381166109895760405162461bcd60e51b815260206004820152602660248201527f4f776e61626c653a206e6577206f776e657220697320746865207a65726f206160448201526564647265737360d01b6064820152608401610896565b61099281610c2b565b50565b60408051808201909152600a81526922b4b3b2b72630bcb2b960b11b6020909101525f7f8b73c3c69bb8fe3d512ecc4cf759cc79239f7b179b0ffacaa9a75d522b39400f7f71b625cfad44bac63b13dba07f2e1d6084ee04b6f8752101ece6126d584ee6ea610a02610d45565b805160209182012060408051928301949094529281019190915260608101919091524660808201523060a082015260c00160405160208183030381529060405280519060200120905090565b610a56610dba565b60665480198219811614610a7d5760405163c61dca5d60e01b815260040160405180910390fd5b606682905560405182815233907f3582d1828e26bf56bd801502bc021ac0bc8afb57c826e4986b45593c8fad389c906020016107f4565b60405163237dfb4760e11b81523360048201527f00000000000000000000000000000000000000000000000000000000000000006001600160a01b0316906346fbf68e90602401602060405180830381865afa158015610b16573d5f5f3e3d5ffd5b505050506040513d601f19601f82011682018060405250810190610b3a9190611430565b61045f57604051631d77d47760e21b815260040160405180910390fd5b606681905560405181815233907fab40a374bc51de372200a8bc981af8c9ecdc08dfdaef0bb6e09f88f3c616ef3d9060200160405180910390a250565b60605f610ba083610e6b565b6040805160208082528183019092529192505f91906020820181803683375050509182525060208101929092525090565b6033546001600160a01b0316331461045f5760405162461bcd60e51b815260206004820181905260248201527f4f776e61626c653a2063616c6c6572206973206e6f7420746865206f776e65726044820152606401610896565b603380546001600160a01b038381166001600160a01b0319831681179093556040519116919082907f8be0079c531659141344cd1fd0a4f28419497f9722a3daafe3b4186f6b6457e0905f90a35050565b606654600160ff83161b908116036109925760405163840a48d560e01b815260040160405180910390fd5b42811015610cc857604051630819bdcd60e01b815260040160405180910390fd5b610cdc6001600160a01b0385168484610e98565b610cf957604051638baa579f60e01b815260040160405180910390fd5b50505050565b5f610d08610995565b60405161190160f01b6020820152602281019190915260428101839052606201604051602081830303815290604052805190602001209050919050565b60605f610d717f0000000000000000000000000000000000000000000000000000000000000000610b94565b9050805f81518110610d8557610d8561147d565b016020908101516040516001600160f81b03199091169181019190915260210160405160208183030381529060405291505090565b7f00000000000000000000000000000000000000000000000000000000000000006001600160a01b031663eab66d7a6040518163ffffffff1660e01b8152600401602060405180830381865afa158015610e16573d5f5f3e3d5ffd5b505050506040513d601f19601f82011682018060405250810190610e3a9190611491565b6001600160a01b0316336001600160a01b03161461045f5760405163794821ff60e01b815260040160405180910390fd5b5f60ff8216601f811115610e9257604051632cd44ac360e21b815260040160405180910390fd5b92915050565b5f5f5f610ea58585610ef6565b90925090505f816004811115610ebd57610ebd611168565b148015610edb5750856001600160a01b0316826001600160a01b0316145b80610eec5750610eec868686610f38565b9695505050505050565b5f5f8251604103610f2a576020830151604084015160608501515f1a610f1e8782858561101f565b94509450505050610f31565b505f905060025b9250929050565b5f5f5f856001600160a01b0316631626ba7e60e01b8686604051602401610f609291906114ac565b60408051601f198184030181529181526020820180516001600160e01b03166001600160e01b0319909416939093179092529051610f9e91906114cc565b5f60405180830381855afa9150503d805f8114610fd6576040519150601f19603f3d011682016040523d82523d5f602084013e610fdb565b606091505b5091509150818015610fef57506020815110155b8015610eec57508051630b135d3f60e11b9061101490830160209081019084016114e2565b149695505050505050565b5f807f7fffffffffffffffffffffffffffffff5d576e7357a4501ddfe92f46681b20a083111561105457505f905060036110d3565b604080515f8082526020820180845289905260ff881692820192909252606081018690526080810185905260019060a0016020604051602081039080840390855afa1580156110a5573d5f5f3e3d5ffd5b5050604051601f1901519150506001600160a01b0381166110cd575f600192509250506110d3565b91505f90505b94509492505050565b5f602082840312156110ec575f5ffd5b5035919050565b6001600160a01b0381168114610992575f5ffd5b5f5f60408385031215611118575f5ffd5b8235611123816110f3565b946020939093013593505050565b5f5f60408385031215611142575f5ffd5b823561114d816110f3565b9150602083013561115d816110f3565b809150509250929050565b634e487b7160e01b5f52602160045260245ffd5b602081016002831061119c57634e487b7160e01b5f52602160045260245ffd5b91905290565b5f81518084528060208401602086015e5f602082860101526020601f19601f83011685010191505092915050565b602081525f6111e260208301846111a2565b9392505050565b5f602082840312156111f9575f5ffd5b813560ff811681146111e2575f5ffd5b634e487b7160e01b5f52604160045260245ffd5b6040516060810167ffffffffffffffff8111828210171561124057611240611209565b60405290565b604051601f8201601f1916810167ffffffffffffffff8111828210171561126f5761126f611209565b604052919050565b5f5f60408385031215611288575f5ffd5b8235611293816110f3565b9150602083013567ffffffffffffffff8111156112ae575f5ffd5b8301606081860312156112bf575f5ffd5b6112c761121d565b813567ffffffffffffffff8111156112dd575f5ffd5b8201601f810187136112ed575f5ffd5b803567ffffffffffffffff81111561130757611307611209565b61131a601f8201601f1916602001611246565b81815288602083850101111561132e575f5ffd5b816020840160208301375f6020928201830152835283810135908301525060409182013591810191909152919491935090915050565b5f5f5f5f60808587031215611377575f5ffd5b8435611382816110f3565b93506020850135611392816110f3565b93969395505050506040820135916060013590565b5f602082840312156113b7575f5ffd5b81356111e2816110f3565b5f5f602083850312156113d3575f5ffd5b823567ffffffffffffffff8111156113e9575f5ffd5b8301601f810185136113f9575f5ffd5b803567ffffffffffffffff81111561140f575f5ffd5b856020828401011115611420575f5ffd5b6020919091019590945092505050565b5f60208284031215611440575f5ffd5b815180151581146111e2575f5ffd5b60208152816020820152818360408301375f818301604090810191909152601f909201601f19160101919050565b634e487b7160e01b5f52603260045260245ffd5b5f602082840312156114a1575f5ffd5b81516111e2816110f3565b828152604060208201525f6114c460408301846111a2565b949350505050565b5f82518060208501845e5f920191825250919050565b5f602082840312156114f2575f5ffd5b505191905056fea26469706673582212207601529701ffc4d2e7db3d74825224b66ab22cf8663a1de491bc680bcf873bca64736f6c634300081b0033","linkReferences":{}},"methodIdentifiers":{"OPERATOR_AVS_REGISTRATION_TYPEHASH()":"d79aceab","OPERATOR_SET_FORCE_DEREGISTRATION_TYPEHASH()":"dce974b9","OPERATOR_SET_REGISTRATION_TYPEHASH()":"c825fe68","avsOperatorStatus(address,address)":"49075da3","calculateOperatorAVSRegistrationDigestHash(address,address,bytes32,uint256)":"a1060c88","cancelSalt(bytes32)":"ec76f442","delegation()":"df5cf723","deregisterOperatorFromAVS(address)":"a364f4da","domainSeparator()":"f698da25","initialize(address,uint256)":"cd6dc687","operatorSaltIsSpent(address,bytes32)":"374823b5","owner()":"8da5cb5b","pause(uint256)":"136439dd","pauseAll()":"595c6a67","paused()":"5c975abb","paused(uint8)":"5ac86ab7","pauserRegistry()":"886f1195","registerOperatorToAVS(address,(bytes,bytes32,uint256))":"9926ee7d","renounceOwnership()":"715018a6","transferOwnership(address)":"f2fde38b","unpause(uint256)":"fabc1cbc","updateAVSMetadataURI(string)":"a98fb355","version()":"54fd4d50"},"id":18}