{"abi":[{"type":"constructor","inputs":[],"stateMutability":"nonpayable"},{"type":"function","name":"BATCH_TIMEOUT","inputs":[],"outputs":[{"name":"","type":"uint256","internalType":"uint256"}],"stateMutability":"view"},{"type":"function","name":"MAX_BATCH_SIZE","inputs":[],"outputs":[{"name":"","type":"uint256","internalType":"uint256"}],"stateMutability":"view"},{"type":"function","name":"MIN_STAKE","inputs":[],"outputs":[{"name":"","type":"uint256","internalType":"uint256"}],"stateMutability":"view"},{"type":"function","name":"SLASH_AMOUNT","inputs":[],"outputs":[{"name":"","type":"uint256","internalType":"uint256"}],"stateMutability":"view"},{"type":"function","name":"TASK_RESPONSE_WINDOW_BLOCK","inputs":[],"outputs":[{"name":"","type":"uint256","internalType":"uint256"}],"stateMutability":"view"},{"type":"function","name":"activeBatches","inputs":[{"name":"","type":"uint256","internalType":"uint256"}],"outputs":[{"name":"","type":"bytes32","internalType":"bytes32"}],"stateMutability":"view"},{"type":"function","name":"addRewardPool","inputs":[],"outputs":[],"stateMutability":"payable"},{"type":"function","name":"addStake","inputs":[],"outputs":[],"stateMutability":"payable"},{"type":"function","name":"avsDirectory","inputs":[],"outputs":[{"name":"","type":"address","internalType":"address"}],"stateMutability":"view"},{"type":"function","name":"batchCounter","inputs":[],"outputs":[{"name":"","type":"uint256","internalType":"uint256"}],"stateMutability":"view"},{"type":"function","name":"cipherFlowHook","inputs":[],"outputs":[{"name":"","type":"address","internalType":"address"}],"stateMutability":"view"},{"type":"function","name":"claimRewards","inputs":[],"outputs":[],"stateMutability":"nonpayable"},{"type":"function","name":"createTask","inputs":[{"name":"taskData","type":"bytes","internalType":"bytes"}],"outputs":[{"name":"taskId","type":"bytes32","internalType":"bytes32"}],"stateMutability":"nonpayable"},{"type":"function","name":"deactivateOperator","inputs":[{"name":"operator","type":"address","internalType":"address"}],"outputs":[],"stateMutability":"nonpayable"},{"type":"function","name":"delegationManager","inputs":[],"outputs":[{"name":"","type":"address","internalType":"address"}],"stateMutability":"view"},{"type":"function","name":"deregisterOperator","inputs":[],"outputs":[],"stateMutability":"nonpayable"},{"type":"function","name":"emergencyWithdraw","inputs":[],"outputs":[],"stateMutability":"nonpayable"},{"type":"function","name":"forceProcessBatch","inputs":[{"name":"batchId","type":"bytes32","internalType":"bytes32"}],"outputs":[],"stateMutability":"nonpayable"},{"type":"function","name":"getActiveOperators","inputs":[],"outputs":[{"name":"activeOps","type":"address[]","internalType":"address[]"}],"stateMutability":"view"},{"type":"function","name":"getAllOperators","inputs":[],"outputs":[{"name":"","type":"address[]","internalType":"address[]"}],"stateMutability":"view"},{"type":"function","name":"getBatchInfo","inputs":[{"name":"batchId","type":"bytes32","internalType":"bytes32"}],"outputs":[{"name":"","type":"tuple","internalType":"struct CipherFlowAVS.OrderBatch","components":[{"name":"batchId","type":"bytes32","internalType":"bytes32"},{"name":"encryptedOrders","type":"bytes","internalType":"bytes"},{"name":"timestamp","type":"uint256","internalType":"uint256"},{"name":"submitter","type":"address","internalType":"address"},{"name":"processed","type":"bool","internalType":"bool"},{"name":"resultHash","type":"bytes32","internalType":"bytes32"},{"name":"orderCount","type":"uint256","internalType":"uint256"}]}],"stateMutability":"view"},{"type":"function","name":"getOperatorInfo","inputs":[{"name":"operator","type":"address","internalType":"address"}],"outputs":[{"name":"","type":"tuple","internalType":"struct CipherFlowAVS.OperatorInfo","components":[{"name":"isRegistered","type":"bool","internalType":"bool"},{"name":"stake","type":"uint256","internalType":"uint256"},{"name":"lastActivity","type":"uint256","internalType":"uint256"},{"name":"slashingCount","type":"uint256","internalType":"uint256"},{"name":"metadataURI","type":"string","internalType":"string"},{"name":"isActive","type":"bool","internalType":"bool"}]}],"stateMutability":"view"},{"type":"function","name":"getOperatorRewards","inputs":[{"name":"operator","type":"address","internalType":"address"}],"outputs":[{"name":"","type":"uint256","internalType":"uint256"}],"stateMutability":"view"},{"type":"function","name":"getStats","inputs":[],"outputs":[{"name":"totalOperators","type":"uint256","internalType":"uint256"},{"name":"activeOperators","type":"uint256","internalType":"uint256"},{"name":"totalStakedAmount","type":"uint256","internalType":"uint256"},{"name":"totalRewardPool","type":"uint256","internalType":"uint256"},{"name":"activeBatchesCount","type":"uint256","internalType":"uint256"},{"name":"totalBatchesProcessed","type":"uint256","internalType":"uint256"}],"stateMutability":"view"},{"type":"function","name":"getTaskResponse","inputs":[{"name":"taskId","type":"bytes32","internalType":"bytes32"}],"outputs":[{"name":"","type":"tuple","internalType":"struct CipherFlowAVS.TaskResponse","components":[{"name":"taskId","type":"bytes32","internalType":"bytes32"},{"name":"taskResponse","type":"bytes32","internalType":"bytes32"},{"name":"taskResponseMetadata","type":"bytes32","internalType":"bytes32"},{"name":"operator","type":"address","internalType":"address"},{"name":"taskCreatedBlock","type":"uint32","internalType":"uint32"}]}],"stateMutability":"view"},{"type":"function","name":"getVolatilityData","inputs":[{"name":"poolId","type":"bytes32","internalType":"bytes32"}],"outputs":[{"name":"","type":"tuple","internalType":"struct CipherFlowAVS.VolatilityOracle","components":[{"name":"volatilityScore","type":"uint256","internalType":"uint256"},{"name":"confidence","type":"uint256","internalType":"uint256"},{"name":"timestamp","type":"uint256","internalType":"uint256"},{"name":"reporter","type":"address","internalType":"address"},{"name":"blockNumber","type":"uint256","internalType":"uint256"}]}],"stateMutability":"view"},{"type":"function","name":"isBatchReady","inputs":[{"name":"batchId","type":"bytes32","internalType":"bytes32"}],"outputs":[{"name":"","type":"bool","internalType":"bool"}],"stateMutability":"view"},{"type":"function","name":"operatorList","inputs":[{"name":"","type":"uint256","internalType":"uint256"}],"outputs":[{"name":"","type":"address","internalType":"address"}],"stateMutability":"view"},{"type":"function","name":"operatorRewards","inputs":[{"name":"","type":"address","internalType":"address"}],"outputs":[{"name":"","type":"uint256","internalType":"uint256"}],"stateMutability":"view"},{"type":"function","name":"operators","inputs":[{"name":"","type":"address","internalType":"address"}],"outputs":[{"name":"isRegistered","type":"bool","internalType":"bool"},{"name":"stake","type":"uint256","internalType":"uint256"},{"name":"lastActivity","type":"uint256","internalType":"uint256"},{"name":"slashingCount","type":"uint256","internalType":"uint256"},{"name":"metadataURI","type":"string","internalType":"string"},{"name":"isActive","type":"bool","internalType":"bool"}],"stateMutability":"view"},{"type":"function","name":"orderBatches","inputs":[{"name":"","type":"bytes32","internalType":"bytes32"}],"outputs":[{"name":"batchId","type":"bytes32","internalType":"bytes32"},{"name":"encryptedOrders","type":"bytes","internalType":"bytes"},{"name":"timestamp","type":"uint256","internalType":"uint256"},{"name":"submitter","type":"address","internalType":"address"},{"name":"processed","type":"bool","internalType":"bool"},{"name":"resultHash","type":"bytes32","internalType":"bytes32"},{"name":"orderCount","type":"uint256","internalType":"uint256"}],"stateMutability":"view"},{"type":"function","name":"owner","inputs":[],"outputs":[{"name":"","type":"address","internalType":"address"}],"stateMutability":"view"},{"type":"function","name":"pause","inputs":[],"outputs":[],"stateMutability":"nonpayable"},{"type":"function","name":"paused","inputs":[],"outputs":[{"name":"","type":"bool","internalType":"bool"}],"stateMutability":"view"},{"type":"function","name":"processOrderBatch","inputs":[{"name":"batchId","type":"bytes32","internalType":"bytes32"},{"name":"resultHash","type":"bytes32","internalType":"bytes32"},{"name":"proof","type":"bytes","internalType":"bytes"}],"outputs":[],"stateMutability":"nonpayable"},{"type":"function","name":"reactivateOperator","inputs":[{"name":"operator","type":"address","internalType":"address"}],"outputs":[],"stateMutability":"nonpayable"},{"type":"function","name":"registerOperator","inputs":[{"name":"metadataURI","type":"string","internalType":"string"}],"outputs":[],"stateMutability":"payable"},{"type":"function","name":"renounceOwnership","inputs":[],"outputs":[],"stateMutability":"nonpayable"},{"type":"function","name":"reportVolatility","inputs":[{"name":"poolId","type":"bytes32","internalType":"bytes32"},{"name":"volatilityScore","type":"uint256","internalType":"uint256"},{"name":"confidence","type":"uint256","internalType":"uint256"}],"outputs":[],"stateMutability":"nonpayable"},{"type":"function","name":"rewardPool","inputs":[],"outputs":[{"name":"","type":"uint256","internalType":"uint256"}],"stateMutability":"view"},{"type":"function","name":"setCipherFlowHook","inputs":[{"name":"_cipherFlowHook","type":"address","internalType":"address"}],"outputs":[],"stateMutability":"nonpayable"},{"type":"function","name":"setEigenLayerAddresses","inputs":[{"name":"_avsDirectory","type":"address","internalType":"address"},{"name":"_delegationManager","type":"address","internalType":"address"},{"name":"_strategy","type":"address","internalType":"address"}],"outputs":[],"stateMutability":"nonpayable"},{"type":"function","name":"strategy","inputs":[],"outputs":[{"name":"","type":"address","internalType":"address"}],"stateMutability":"view"},{"type":"function","name":"submitOrderBatch","inputs":[{"name":"encryptedOrders","type":"bytes","internalType":"bytes"}],"outputs":[{"name":"batchId","type":"bytes32","internalType":"bytes32"}],"stateMutability":"nonpayable"},{"type":"function","name":"submitTaskResponse","inputs":[{"name":"taskId","type":"bytes32","internalType":"bytes32"},{"name":"response","type":"bytes32","internalType":"bytes32"},{"name":"metadata","type":"bytes32","internalType":"bytes32"}],"outputs":[],"stateMutability":"nonpayable"},{"type":"function","name":"taskCounter","inputs":[],"outputs":[{"name":"","type":"uint256","internalType":"uint256"}],"stateMutability":"view"},{"type":"function","name":"taskResponses","inputs":[{"name":"","type":"bytes32","internalType":"bytes32"}],"outputs":[{"name":"taskId","type":"bytes32","internalType":"bytes32"},{"name":"taskResponse","type":"bytes32","internalType":"bytes32"},{"name":"taskResponseMetadata","type":"bytes32","internalType":"bytes32"},{"name":"operator","type":"address","internalType":"address"},{"name":"taskCreatedBlock","type":"uint32","internalType":"uint32"}],"stateMutability":"view"},{"type":"function","name":"totalStaked","inputs":[],"outputs":[{"name":"","type":"uint256","internalType":"uint256"}],"stateMutability":"view"},{"type":"function","name":"transferOwnership","inputs":[{"name":"newOwner","type":"address","internalType":"address"}],"outputs":[],"stateMutability":"nonpayable"},{"type":"function","name":"unpause","inputs":[],"outputs":[],"stateMutability":"nonpayable"},{"type":"function","name":"volatilityData","inputs":[{"name":"","type":"bytes32","internalType":"bytes32"}],"outputs":[{"name":"volatilityScore","type":"uint256","internalType":"uint256"},{"name":"confidence","type":"uint256","internalType":"uint256"},{"name":"timestamp","type":"uint256","internalType":"uint256"},{"name":"reporter","type":"address","internalType":"address"},{"name":"blockNumber","type":"uint256","internalType":"uint256"}],"stateMutability":"view"},{"type":"event","name":"EigenLayerIntegrationUpdated","inputs":[{"name":"avsDirectory","type":"address","indexed":false,"internalType":"address"},{"name":"delegationManager","type":"address","indexed":false,"internalType":"address"},{"name":"strategy","type":"address","indexed":false,"internalType":"address"}],"anonymous":false},{"type":"event","name":"OperatorDeregistered","inputs":[{"name":"operator","type":"address","indexed":true,"internalType":"address"}],"anonymous":false},{"type":"event","name":"OperatorRegistered","inputs":[{"name":"operator","type":"address","indexed":true,"internalType":"address"},{"name":"metadataURI","type":"string","indexed":false,"internalType":"string"}],"anonymous":false},{"type":"event","name":"OrderBatchProcessed","inputs":[{"name":"batchId","type":"bytes32","indexed":true,"internalType":"bytes32"},{"name":"resultHash","type":"bytes32","indexed":true,"internalType":"bytes32"},{"name":"operator","type":"address","indexed":true,"internalType":"address"},{"name":"rewardAmount","type":"uint256","indexed":false,"internalType":"uint256"}],"anonymous":false},{"type":"event","name":"OrderBatchSubmitted","inputs":[{"name":"batchId","type":"bytes32","indexed":true,"internalType":"bytes32"},{"name":"submitter","type":"address","indexed":true,"internalType":"address"},{"name":"orderCount","type":"uint256","indexed":false,"internalType":"uint256"},{"name":"timestamp","type":"uint256","indexed":false,"internalType":"uint256"}],"anonymous":false},{"type":"event","name":"OwnershipTransferred","inputs":[{"name":"previousOwner","type":"address","indexed":true,"internalType":"address"},{"name":"newOwner","type":"address","indexed":true,"internalType":"address"}],"anonymous":false},{"type":"event","name":"Paused","inputs":[{"name":"account","type":"address","indexed":false,"internalType":"address"}],"anonymous":false},{"type":"event","name":"TaskCreated","inputs":[{"name":"taskId","type":"bytes32","indexed":true,"internalType":"bytes32"},{"name":"taskCreatedBlock","type":"uint32","indexed":false,"internalType":"uint32"},{"name":"requester","type":"address","indexed":true,"internalType":"address"}],"anonymous":false},{"type":"event","name":"TaskResponseSubmitted","inputs":[{"name":"taskId","type":"bytes32","indexed":true,"internalType":"bytes32"},{"name":"operator","type":"address","indexed":true,"internalType":"address"},{"name":"response","type":"bytes32","indexed":false,"internalType":"bytes32"}],"anonymous":false},{"type":"event","name":"Unpaused","inputs":[{"name":"account","type":"address","indexed":false,"internalType":"address"}],"anonymous":false},{"type":"event","name":"VolatilityReported","inputs":[{"name":"poolId","type":"bytes32","indexed":true,"internalType":"bytes32"},{"name":"volatility","type":"uint256","indexed":false,"internalType":"uint256"},{"name":"confidence","type":"uint256","indexed":false,"internalType":"uint256"},{"name":"reporter","type":"address","indexed":true,"internalType":"address"}],"anonymous":false},{"type":"error","name":"BatchAlreadyProcessed","inputs":[]},{"type":"error","name":"BatchTimeout","inputs":[]},{"type":"error","name":"EnforcedPause","inputs":[]},{"type":"error","name":"ExpectedPause","inputs":[]},{"type":"error","name":"InsufficientStake","inputs":[]},{"type":"error","name":"InvalidBatchSize","inputs":[]},{"type":"error","name":"InvalidVolatilityData","inputs":[]},{"type":"error","name":"OnlyHook","inputs":[]},{"type":"error","name":"OperatorAlreadyRegistered","inputs":[]},{"type":"error","name":"OperatorInactive","inputs":[]},{"type":"error","name":"OperatorNotRegistered","inputs":[]},{"type":"error","name":"OwnableInvalidOwner","inputs":[{"name":"owner","type":"address","internalType":"address"}]},{"type":"error","name":"OwnableUnauthorizedAccount","inputs":[{"name":"account","type":"address","internalType":"address"}]},{"type":"error","name":"ReentrancyGuardReentrantCall","inputs":[]}],"bytecode":{"object":"0x6080604052348015600e575f5ffd5b503380603357604051631e4fbdf760e01b81525f600482015260240160405180910390fd5b603a81604d565b50600180556002805460ff19169055609c565b5f80546001600160a01b038381166001600160a01b0319831681178455604051919092169283917f8be0079c531659141344cd1fd0a4f28419497f9722a3daafe3b4186f6b6457e09190a35050565b612d07806100a95f395ff3fe6080604052600436106102d9575f3560e01c80636e89298811610189578063c2f39136116100d8578063d214bb7511610092578063e200df611161006d578063e200df6114610968578063ea4d3c9b146109f7578063f2fde38b14610a16578063f5853fed14610a35575f5ffd5b8063d214bb7514610921578063d911c63214610940578063db2e21bc14610954575f5ffd5b8063c2f391361461083e578063c59d48471461085d578063c9045a301461089e578063cb1c2b5c146108d2578063cb38f407146108ee578063cfdbf2541461090d575f5ffd5b8063857dc190116101435780639f51ecbf1161011e5780639f51ecbf146107c2578063a06c0848146107e1578063a4bad77614610800578063a8c62e761461081f575f5ffd5b8063857dc190146107735780638da5cb5b14610787578063966e5897146107a3575f5ffd5b80636e89298814610690578063715018a6146106f5578063753207c714610709578063771fcf5b14610735578063817b1cd21461074a5780638456cb591461075f575f5ffd5b806341a2b8d6116102455780635a627dbc116101ff57806364bdc67e116101da57806364bdc67e1461060957806366666aa91461062a57806368233eef1461063f5780636b3aa72e14610654575f5ffd5b80635a627dbc146105bf5780635bdd7b4d146105c75780635c975abb146105e6575f5ffd5b806341a2b8d61461051a5780634a93b9021461054557806350e0ec53146105645780635456f96c1461056c5780635861a29d1461058b57806358671730146105aa575f5ffd5b806327c919e21161029657806327c919e21461042157806327d9ab5d1461048c5780632e41b140146104b8578063372500ab146104d757806337720606146104eb5780633f4ba83a14610506575f5ffd5b80630311e9cf146102dd578063097c4af11461031857806313e7c9d81461032d578063167b4fac1461035e5780631ad431891461038b578063268ac8051461039f575b5f5ffd5b3480156102e8575f5ffd5b506102fc6102f73660046126a9565b610a54565b60405161030f97969594939291906126ee565b60405180910390f35b61032b61032636600461277e565b610b25565b005b348015610338575f5ffd5b5061034c6103473660046127d8565b610cf3565b60405161030f969594939291906127f1565b348015610369575f5ffd5b5061037d6103783660046126a9565b610db6565b60405190815260200161030f565b348015610396575f5ffd5b5061037d601e81565b3480156103aa575f5ffd5b506103f06103b93660046126a9565b60076020525f9081526040902080546001820154600283015460038401546004909401549293919290916001600160a01b03169085565b604080519586526020860194909452928401919091526001600160a01b03166060830152608082015260a00161030f565b34801561042c575f5ffd5b5061044061043b3660046126a9565b610dd5565b60405161030f91908151815260208083015190820152604080830151908201526060808301516001600160a01b03169082015260809182015163ffffffff169181019190915260a00190565b348015610497575f5ffd5b506104ab6104a63660046127d8565b610e71565b60405161030f9190612832565b3480156104c3575f5ffd5b5061032b6104d236600461288f565b610fa6565b3480156104e2575f5ffd5b5061032b611108565b3480156104f6575f5ffd5b5061037d670de0b6b3a764000081565b348015610511575f5ffd5b5061032b61120d565b348015610525575f5ffd5b5061037d6105343660046127d8565b60096020525f908152604090205481565b348015610550575f5ffd5b5061032b61055f3660046128b8565b61121d565b61032b61154a565b348015610577575f5ffd5b5061032b6105863660046127d8565b61156a565b348015610596575f5ffd5b5061037d6105a536600461277e565b611595565b3480156105b5575f5ffd5b5061037d600d5481565b61032b6117af565b3480156105d2575f5ffd5b5061032b6105e13660046127d8565b611849565b3480156105f1575f5ffd5b5060025460ff165b604051901515815260200161030f565b348015610614575f5ffd5b5061061d611877565b60405161030f9190612907565b348015610635575f5ffd5b5061037d60105481565b34801561064a575f5ffd5b5061037d600c5481565b34801561065f575f5ffd5b506002546106789061010090046001600160a01b031681565b6040516001600160a01b03909116815260200161030f565b34801561069b575f5ffd5b506106af6106aa3660046126a9565b6119b2565b60405161030f91908151815260208083015190820152604080830151908201526060808301516001600160a01b0316908201526080918201519181019190915260a00190565b348015610700575f5ffd5b5061032b611a3f565b348015610714575f5ffd5b506107286107233660046126a9565b611a50565b60405161030f9190612952565b348015610740575f5ffd5b5061037d61012c81565b348015610755575f5ffd5b5061037d600f5481565b34801561076a575f5ffd5b5061032b611b94565b34801561077e575f5ffd5b5061032b611ba4565b348015610792575f5ffd5b505f546001600160a01b0316610678565b3480156107ae575f5ffd5b5061037d6107bd36600461277e565b611cb6565b3480156107cd575f5ffd5b5061032b6107dc3660046126a9565b611d65565b3480156107ec575f5ffd5b506105f96107fb3660046126a9565b611e6e565b34801561080b575f5ffd5b5061032b61081a3660046127d8565b611fa2565b34801561082a575f5ffd5b50600454610678906001600160a01b031681565b348015610849575f5ffd5b50600e54610678906001600160a01b031681565b348015610868575f5ffd5b50610871612019565b604080519687526020870195909552938501929092526060840152608083015260a082015260c00161030f565b3480156108a9575f5ffd5b5061037d6108b83660046127d8565b6001600160a01b03165f9081526009602052604090205490565b3480156108dd575f5ffd5b5061037d6801bc16d674ec80000081565b3480156108f9575f5ffd5b506106786109083660046126a9565b61207c565b348015610918575f5ffd5b5061037d606481565b34801561092c575f5ffd5b5061032b61093b36600461288f565b6120a4565b34801561094b575f5ffd5b5061061d61223c565b34801561095f575f5ffd5b5061032b61229c565b348015610973575f5ffd5b506109c06109823660046126a9565b60086020525f90815260409020805460018201546002830154600390930154919290916001600160a01b03811690600160a01b900463ffffffff1685565b604080519586526020860194909452928401919091526001600160a01b0316606083015263ffffffff16608082015260a00161030f565b348015610a02575f5ffd5b50600354610678906001600160a01b031681565b348015610a21575f5ffd5b5061032b610a303660046127d8565b6122de565b348015610a40575f5ffd5b5061032b610a4f3660046129c0565b612318565b60056020525f908152604090208054600182018054919291610a7590612a00565b80601f0160208091040260200160405190810160405280929190818152602001828054610aa190612a00565b8015610aec5780601f10610ac357610100808354040283529160200191610aec565b820191905f5260205f20905b815481529060010190602001808311610acf57829003601f168201915b50505050600283015460038401546004850154600590950154939491936001600160a01b0382169350600160a01b90910460ff16919087565b610b2d6123b3565b6801bc16d674ec800000341015610b57576040516378de4a6960e11b815260040160405180910390fd5b335f9081526006602052604090205460ff1615610b87576040516342ee68b560e01b815260040160405180910390fd5b6040518060c001604052806001151581526020013481526020014281526020015f815260200183838080601f0160208091040260200160405190810160405280939291908181526020018383808284375f920182905250938552505060016020938401819052338352600684526040928390208551815460ff191690151517815593850151908401555082015160028201556060820151600382015560808201516004820190610c379082612a97565b5060a091909101516005909101805491151560ff19909216919091179055600a80546001810182555f9182527fc65a7bb8d6351c1cf70c95a316cc6a92839c986682d98bc35f958f4883f9d2a80180546001600160a01b03191633179055600f8054349290610ca7908490612b66565b9091555050336001600160a01b03167f11a85ea4a40584362c3d9c17685709a2e02b466ac78d5eb00b6aff73d90f58058383604051610ce7929190612ba1565b60405180910390a25050565b60066020525f90815260409020805460018201546002830154600384015460048501805460ff90951695939492939192610d2c90612a00565b80601f0160208091040260200160405190810160405280929190818152602001828054610d5890612a00565b8015610da35780601f10610d7a57610100808354040283529160200191610da3565b820191905f5260205f20905b815481529060010190602001808311610d8657829003601f168201915b5050506005909301549192505060ff1686565b600b8181548110610dc5575f80fd5b5f91825260209091200154905081565b610e116040518060a001604052805f81526020015f81526020015f81526020015f6001600160a01b031681526020015f63ffffffff1681525090565b505f90815260086020908152604091829020825160a081018452815481526001820154928101929092526002810154928201929092526003909101546001600160a01b0381166060830152600160a01b900463ffffffff16608082015290565b610ea96040518060c001604052805f151581526020015f81526020015f81526020015f8152602001606081526020015f151581525090565b6001600160a01b0382165f90815260066020908152604091829020825160c081018452815460ff161515815260018201549281019290925260028101549282019290925260038201546060820152600482018054919291608084019190610f0f90612a00565b80601f0160208091040260200160405190810160405280929190818152602001828054610f3b90612a00565b8015610f865780601f10610f5d57610100808354040283529160200191610f86565b820191905f5260205f20905b815481529060010190602001808311610f6957829003601f168201915b50505091835250506005919091015460ff16151560209091015292915050565b335f9081526006602052604090205460ff16610fd5576040516325ec6c1f60e01b815260040160405180910390fd5b335f9081526006602052604090206005015460ff16611007576040516331d897cb60e01b815260040160405180910390fd5b61100f6123b3565b612710821180611020575061271081115b1561103e57604051632a0b4e2960e11b815260040160405180910390fd5b6040805160a081018252838152602080820184815242838501818152336060860181815243608088019081525f8c8152600788528981209851895595516001890155925160028089019190915590516003880180546001600160a01b0319166001600160a01b0390921691909117905591516004909601959095558483526006845291859020909101558251858152908101849052909185917f74202011b58f2e4c57ff274a1a05a61b4c974f7c1a7119b3fd539b7cf806463991015b60405180910390a3505050565b335f9081526006602052604090205460ff16611137576040516325ec6c1f60e01b815260040160405180910390fd5b335f9081526006602052604090206005015460ff16611169576040516331d897cb60e01b815260040160405180910390fd5b6111716123d7565b335f90815260096020526040902054806111c85760405162461bcd60e51b81526020600482015260136024820152724e6f207265776172647320746f20636c61696d60681b60448201526064015b60405180910390fd5b335f818152600960205260408082208290555183156108fc0291849190818181858888f19350505050158015611200573d5f5f3e3d5ffd5b505061120b60018055565b565b611215612401565b61120b61242d565b335f9081526006602052604090205460ff1661124c576040516325ec6c1f60e01b815260040160405180910390fd5b335f9081526006602052604090206005015460ff1661127e576040516331d897cb60e01b815260040160405180910390fd5b6112866123b3565b61128e6123d7565b5f848152600560205260408120600201548591036112e55760405162461bcd60e51b815260206004820152601460248201527310985d18da08191bd95cc81b9bdd08195e1a5cdd60621b60448201526064016111bf565b5f8581526005602052604090206003810154600160a01b900460ff161561131f576040516338ac7c6560e21b815260040160405180910390fd5b61012c81600201546113319190612b66565b421115611351576040516302bb5f2560e21b815260040160405180910390fd5b61141b81600101805461136390612a00565b80601f016020809104026020016040519081016040528092919081815260200182805461138f90612a00565b80156113da5780601f106113b1576101008083540402835291602001916113da565b820191905f5260205f20905b8154815290600101906020018083116113bd57829003601f168201915b50505050508686868080601f0160208091040260200160405190810160405280939291908181526020018383808284375f9201919091525061247f92505050565b6114575760405162461bcd60e51b815260206004820152600d60248201526c24b73b30b634b210383937b7b360991b60448201526064016111bf565b60038101805460ff60a01b1916600160a01b17905560048101859055335f908152600660205260408120426002909101556005820154611496906124b8565b90505f811180156114a957508060105410155b156114ea57335f90815260096020526040812080548392906114cc908490612b66565b925050819055508060105f8282546114e49190612bbc565b90915550505b6114f38761250a565b336001600160a01b031686887fc8de80da7e0a5ff7f3b2955714b949d474ac1f5eb4b615d3fde8cd001e6639798460405161153091815260200190565b60405180910390a450505061154460018055565b50505050565b611552612401565b3460105f8282546115639190612b66565b9091555050565b611572612401565b6001600160a01b03165f908152600660205260409020600501805460ff19169055565b600e545f906001600160a01b031633146115c257604051635a91834f60e01b815260040160405180910390fd5b6115ca6123b3565b6115d660646020612bcf565b8211156115f657604051637862e95960e01b815260040160405180910390fd5b600c8054905f61160583612be6565b91905055424333868660405160200161162396959493929190612bfe565b60408051601f19818403018152919052805160209182012091505f906116499084612c3d565b90506040518060e0016040528083815260200185858080601f0160208091040260200160405190810160405280939291908181526020018383808284375f92018290525093855250504260208085019190915233604080860191909152606085018490526080850184905260a0909401869052868352600581529290912083518155918301516001830191506116df9082612a97565b506040828101516002830155606083015160038301805460808601511515600160a01b026001600160a81b03199091166001600160a01b039093169290921791909117905560a0830151600483015560c090920151600590910155600b80546001810182555f919091527f0175b7a638427703f0dbe7bb9bbf987a2551717b34e79f33b5b1008d1fa01db9018390558051828152426020820152339184917fc4240af99c397f825bf945f778f3a1c9200d55ad8575f3fa8decd4f148eafcf2910160405180910390a35092915050565b335f9081526006602052604090205460ff166117de576040516325ec6c1f60e01b815260040160405180910390fd5b335f9081526006602052604090206005015460ff16611810576040516331d897cb60e01b815260040160405180910390fd5b335f9081526006602052604081206001018054349290611831908490612b66565b9250508190555034600f5f8282546115639190612b66565b611851612401565b6001600160a01b03165f908152600660205260409020600501805460ff19166001179055565b60605f805b600a548110156118d0576118b5600a828154811061189c5761189c612c5c565b5f918252602090912001546001600160a01b03166125b3565b156118c857816118c481612be6565b9250505b60010161187c565b508067ffffffffffffffff8111156118ea576118ea612a38565b604051908082528060200260200182016040528015611913578160200160208202803683370190505b5091505f805b600a548110156119ac57611939600a828154811061189c5761189c612c5c565b156119a457600a818154811061195157611951612c5c565b905f5260205f20015f9054906101000a90046001600160a01b031684838151811061197e5761197e612c5c565b6001600160a01b0390921660209283029190910190910152816119a081612be6565b9250505b600101611919565b50505090565b6119e86040518060a001604052805f81526020015f81526020015f81526020015f6001600160a01b031681526020015f81525090565b505f90815260076020908152604091829020825160a0810184528154815260018201549281019290925260028101549282019290925260038201546001600160a01b03166060820152600490910154608082015290565b611a47612401565b61120b5f6125fa565b611a956040518060e001604052805f8152602001606081526020015f81526020015f6001600160a01b031681526020015f151581526020015f81526020015f81525090565b60055f8381526020019081526020015f206040518060e00160405290815f8201548152602001600182018054611aca90612a00565b80601f0160208091040260200160405190810160405280929190818152602001828054611af690612a00565b8015611b415780601f10611b1857610100808354040283529160200191611b41565b820191905f5260205f20905b815481529060010190602001808311611b2457829003601f168201915b50505091835250506002820154602082015260038201546001600160a01b0381166040830152600160a01b900460ff16151560608201526004820154608082015260059091015460a09091015292915050565b611b9c612401565b61120b612649565b335f9081526006602052604090205460ff16611bd3576040516325ec6c1f60e01b815260040160405180910390fd5b335f9081526006602052604090206005015460ff16611c05576040516331d897cb60e01b815260040160405180910390fd5b335f908152600660205260409020805460ff1990811682556005820180549091169055600101548015611c8957335f908152600660205260408120600101819055600f8054839290611c58908490612bbc565b9091555050604051339082156108fc029083905f818181858888f19350505050158015611c87573d5f5f3e3d5ffd5b505b60405133907f6dd4ca66565fb3dee8076c654634c6c4ad949022d809d0394308617d6791218d905f90a250565b600e545f906001600160a01b03163314611ce357604051635a91834f60e01b815260040160405180910390fd5b600d8054905f611cf283612be6565b91905055428484604051602001611d0c9493929190612c70565b60408051601f1981840301815290829052805160209182012063ffffffff431683529250339183917f7d2d7b30f90cc4249b32768f971200957cdc7f651a87d019226395ade3e6a7b9910160405180910390a392915050565b611d6d612401565b5f81815260056020526040812060020154829103611dc45760405162461bcd60e51b815260206004820152601460248201527310985d18da08191bd95cc81b9bdd08195e1a5cdd60621b60448201526064016111bf565b5f8281526005602052604090206002810154611de39061012c90612b66565b4211611e255760405162461bcd60e51b815260206004820152601160248201527010985d18da081b9bdd08195e1c1a5c9959607a1b60448201526064016111bf565b60038101805460ff60a01b1916600160a01b1790557f3c8e411ec738cc20a303004a266608a57bc399b64a5195ddd76f252ea8dc27ae6004820155611e698361250a565b505050565b5f818152600560209081526040808320815160e0810190925280548252600181018054859484019190611ea090612a00565b80601f0160208091040260200160405190810160405280929190818152602001828054611ecc90612a00565b8015611f175780601f10611eee57610100808354040283529160200191611f17565b820191905f5260205f20905b815481529060010190602001808311611efa57829003601f168201915b50505091835250506002820154602082015260038201546001600160a01b0381166040830152600160a01b900460ff1615156060820152600482015460808083019190915260059092015460a090910152810151909150158015611f7e5750604081015115155b8015611f9b575061012c8160400151611f979190612b66565b4211155b9392505050565b611faa612401565b6001600160a01b038116611ff75760405162461bcd60e51b8152602060048201526014602482015273496e76616c696420686f6f6b206164647265737360601b60448201526064016111bf565b600e80546001600160a01b0319166001600160a01b0392909216919091179055565b600a545f80808080805b600a5481101561205e57612043600a828154811061189c5761189c612c5c565b15612056578561205281612be6565b9650505b600101612023565b5050600f54601054600b54600c549798969792969195509350909150565b600a818154811061208b575f80fd5b5f918252602090912001546001600160a01b0316905081565b335f9081526006602052604090205460ff166120d3576040516325ec6c1f60e01b815260040160405180910390fd5b335f9081526006602052604090206005015460ff16612105576040516331d897cb60e01b815260040160405180910390fd5b5f83815260086020526040902060030154600160a01b900463ffffffff16156121705760405162461bcd60e51b815260206004820152601a60248201527f526573706f6e736520616c7265616479207375626d697474656400000000000060448201526064016111bf565b6040805160a0810182528481526020808201858152828401858152336060850181815263ffffffff438116608088019081525f8c815260088852898120985189559551600189015593516002808901919091559151600390970180549451909116600160a01b026001600160c01b03199094166001600160a01b03979097169690961792909217909455838252600690925283902042910155905184907f3e26dca34234d6152ada1c2479c3630b94c791fd671bd13116b072bf3ae381a8906110fb9086815260200190565b6060600a80548060200260200160405190810160405280929190818152602001828054801561229257602002820191905f5260205f20905b81546001600160a01b03168152600190910190602001808311612274575b5050505050905090565b6122a4612401565b5f80546040516001600160a01b03909116914780156108fc02929091818181858888f193505050501580156122db573d5f5f3e3d5ffd5b50565b6122e6612401565b6001600160a01b03811661230f57604051631e4fbdf760e01b81525f60048201526024016111bf565b6122db816125fa565b612320612401565b60028054610100600160a81b0319166101006001600160a01b0386811691820292909217909255600380546001600160a01b03199081168684169081179092556004805490911692851692831790556040805193845260208401919091528201527f498a6e11bf1736cfbe007fdc66286baf0862d77148b4082390840e8b8942c3c79060600160405180910390a1505050565b60025460ff161561120b5760405163d93c066560e01b815260040160405180910390fd5b6002600154036123fa57604051633ee5aeb560e01b815260040160405180910390fd5b6002600155565b5f546001600160a01b0316331461120b5760405163118cdaa760e01b81523360048201526024016111bf565b612435612686565b6002805460ff191690557f5db9ee0a495bf2e6ff9c91a7834c1ba4fdd244a5e8aa4e537bd38aeae4b073aa335b6040516001600160a01b03909116815260200160405180910390a1565b5f5f8483604051602001612494929190612c99565b60408051601f19818403018152919052805160209091012084149150509392505050565b5f662386f26fc10000816124d38466038d7ea4c68000612bcf565b90505f6124e08284612b66565b9050670de0b6b3a764000081116124f75780612501565b670de0b6b3a76400005b95945050505050565b5f5b600b548110156125af5781600b828154811061252a5761252a612c5c565b905f5260205f200154036125a757600b805461254890600190612bbc565b8154811061255857612558612c5c565b905f5260205f200154600b828154811061257457612574612c5c565b5f91825260209091200155600b80548061259057612590612cbd565b600190038181905f5260205f20015f905590555050565b60010161250c565b5050565b6001600160a01b0381165f9081526006602052604081206005015460ff1680156125f457506001600160a01b0382165f9081526006602052604090205460ff165b92915050565b5f80546001600160a01b038381166001600160a01b0319831681178455604051919092169283917f8be0079c531659141344cd1fd0a4f28419497f9722a3daafe3b4186f6b6457e09190a35050565b6126516123b3565b6002805460ff191660011790557f62e78cea01bee320cd4e420270b5ea74000d11b0c9f74754ebdbfc544b05a2586124623390565b60025460ff1661120b57604051638dfc202b60e01b815260040160405180910390fd5b5f602082840312156126b9575f5ffd5b5035919050565b5f81518084528060208401602086015e5f602082860101526020601f19601f83011685010191505092915050565b87815260e060208201525f61270660e08301896126c0565b6040830197909752506001600160a01b03949094166060850152911515608084015260a083015260c09091015292915050565b5f5f83601f840112612749575f5ffd5b50813567ffffffffffffffff811115612760575f5ffd5b602083019150836020828501011115612777575f5ffd5b9250929050565b5f5f6020838503121561278f575f5ffd5b823567ffffffffffffffff8111156127a5575f5ffd5b6127b185828601612739565b90969095509350505050565b80356001600160a01b03811681146127d3575f5ffd5b919050565b5f602082840312156127e8575f5ffd5b611f9b826127bd565b861515815285602082015284604082015283606082015260c060808201525f61281d60c08301856126c0565b905082151560a0830152979650505050505050565b602081528151151560208201526020820151604082015260408201516060820152606082015160808201525f608083015160c060a084015261287760e08401826126c0565b905060a0840151151560c08401528091505092915050565b5f5f5f606084860312156128a1575f5ffd5b505081359360208301359350604090920135919050565b5f5f5f5f606085870312156128cb575f5ffd5b8435935060208501359250604085013567ffffffffffffffff8111156128ef575f5ffd5b6128fb87828801612739565b95989497509550505050565b602080825282518282018190525f918401906040840190835b818110156129475783516001600160a01b0316835260209384019390920191600101612920565b509095945050505050565b60208152815160208201525f602083015160e060408401526129786101008401826126c0565b90506040840151606084015260018060a01b0360608501511660808401526080840151151560a084015260a084015160c084015260c084015160e08401528091505092915050565b5f5f5f606084860312156129d2575f5ffd5b6129db846127bd565b92506129e9602085016127bd565b91506129f7604085016127bd565b90509250925092565b600181811c90821680612a1457607f821691505b602082108103612a3257634e487b7160e01b5f52602260045260245ffd5b50919050565b634e487b7160e01b5f52604160045260245ffd5b601f821115611e6957805f5260205f20601f840160051c81016020851015612a715750805b601f840160051c820191505b81811015612a90575f8155600101612a7d565b5050505050565b815167ffffffffffffffff811115612ab157612ab1612a38565b612ac581612abf8454612a00565b84612a4c565b6020601f821160018114612af7575f8315612ae05750848201515b5f19600385901b1c1916600184901b178455612a90565b5f84815260208120601f198516915b82811015612b265787850151825560209485019460019092019101612b06565b5084821015612b4357868401515f19600387901b60f8161c191681555b50505050600190811b01905550565b634e487b7160e01b5f52601160045260245ffd5b808201808211156125f4576125f4612b52565b81835281816020850137505f828201602090810191909152601f909101601f19169091010190565b602081525f612bb4602083018486612b79565b949350505050565b818103818111156125f4576125f4612b52565b80820281158282048414176125f4576125f4612b52565b5f60018201612bf757612bf7612b52565b5060010190565b86815285602082015284604082015260018060a01b038416606082015260a060808201525f612c3160a083018486612b79565b98975050505050505050565b5f82612c5757634e487b7160e01b5f52601260045260245ffd5b500490565b634e487b7160e01b5f52603260045260245ffd5b848152836020820152606060408201525f612c8f606083018486612b79565b9695505050505050565b604081525f612cab60408301856126c0565b828103602084015261250181856126c0565b634e487b7160e01b5f52603160045260245ffdfea2646970667358221220c5cc4444eeed9018fb122351816f1873858a4b39b0f6ed788e23f98a1d0b791564736f6c634300081b0033","linkReferences":{}},"methodIdentifiers":{"BATCH_TIMEOUT()":"771fcf5b","MAX_BATCH_SIZE()":"cfdbf254","MIN_STAKE()":"cb1c2b5c","SLASH_AMOUNT()":"37720606","TASK_RESPONSE_WINDOW_BLOCK()":"1ad43189","activeBatches(uint256)":"167b4fac","addRewardPool()":"50e0ec53","addStake()":"5a627dbc","avsDirectory()":"6b3aa72e","batchCounter()":"68233eef","cipherFlowHook()":"c2f39136","claimRewards()":"372500ab","createTask(bytes)":"966e5897","deactivateOperator(address)":"5456f96c","delegationManager()":"ea4d3c9b","deregisterOperator()":"857dc190","emergencyWithdraw()":"db2e21bc","forceProcessBatch(bytes32)":"9f51ecbf","getActiveOperators()":"64bdc67e","getAllOperators()":"d911c632","getBatchInfo(bytes32)":"753207c7","getOperatorInfo(address)":"27d9ab5d","getOperatorRewards(address)":"c9045a30","getStats()":"c59d4847","getTaskResponse(bytes32)":"27c919e2","getVolatilityData(bytes32)":"6e892988","isBatchReady(bytes32)":"a06c0848","operatorList(uint256)":"cb38f407","operatorRewards(address)":"41a2b8d6","operators(address)":"13e7c9d8","orderBatches(bytes32)":"0311e9cf","owner()":"8da5cb5b","pause()":"8456cb59","paused()":"5c975abb","processOrderBatch(bytes32,bytes32,bytes)":"4a93b902","reactivateOperator(address)":"5bdd7b4d","registerOperator(string)":"097c4af1","renounceOwnership()":"715018a6","reportVolatility(bytes32,uint256,uint256)":"2e41b140","rewardPool()":"66666aa9","setCipherFlowHook(address)":"a4bad776","setEigenLayerAddresses(address,address,address)":"f5853fed","strategy()":"a8c62e76","submitOrderBatch(bytes)":"5861a29d","submitTaskResponse(bytes32,bytes32,bytes32)":"d214bb75","taskCounter()":"58671730","taskResponses(bytes32)":"e200df61","totalStaked()":"817b1cd2","transferOwnership(address)":"f2fde38b","unpause()":"3f4ba83a","volatilityData(bytes32)":"268ac805"},"id":107}