{"abi":[{"type":"constructor","inputs":[{"name":"_poolManager","type":"address","internalType":"contract IPoolManager"},{"name":"_cipherFlowAVS","type":"address","internalType":"contract CipherFlowAVS"},{"name":"_owner","type":"address","internalType":"address"}],"stateMutability":"nonpayable"},{"type":"function","name":"addAuthorizedManager","inputs":[{"name":"manager","type":"address","internalType":"address"}],"outputs":[],"stateMutability":"nonpayable"},{"type":"function","name":"afterAddLiquidity","inputs":[{"name":"sender","type":"address","internalType":"address"},{"name":"key","type":"tuple","internalType":"struct PoolKey","components":[{"name":"currency0","type":"address","internalType":"Currency"},{"name":"currency1","type":"address","internalType":"Currency"},{"name":"fee","type":"uint24","internalType":"uint24"},{"name":"tickSpacing","type":"int24","internalType":"int24"},{"name":"hooks","type":"address","internalType":"contract IHooks"}]},{"name":"params","type":"tuple","internalType":"struct ModifyLiquidityParams","components":[{"name":"tickLower","type":"int24","internalType":"int24"},{"name":"tickUpper","type":"int24","internalType":"int24"},{"name":"liquidityDelta","type":"int256","internalType":"int256"},{"name":"salt","type":"bytes32","internalType":"bytes32"}]},{"name":"delta","type":"int256","internalType":"BalanceDelta"},{"name":"feesAccrued","type":"int256","internalType":"BalanceDelta"},{"name":"hookData","type":"bytes","internalType":"bytes"}],"outputs":[{"name":"","type":"bytes4","internalType":"bytes4"},{"name":"","type":"int256","internalType":"BalanceDelta"}],"stateMutability":"nonpayable"},{"type":"function","name":"afterDonate","inputs":[{"name":"sender","type":"address","internalType":"address"},{"name":"key","type":"tuple","internalType":"struct PoolKey","components":[{"name":"currency0","type":"address","internalType":"Currency"},{"name":"currency1","type":"address","internalType":"Currency"},{"name":"fee","type":"uint24","internalType":"uint24"},{"name":"tickSpacing","type":"int24","internalType":"int24"},{"name":"hooks","type":"address","internalType":"contract IHooks"}]},{"name":"amount0","type":"uint256","internalType":"uint256"},{"name":"amount1","type":"uint256","internalType":"uint256"},{"name":"hookData","type":"bytes","internalType":"bytes"}],"outputs":[{"name":"","type":"bytes4","internalType":"bytes4"}],"stateMutability":"nonpayable"},{"type":"function","name":"afterInitialize","inputs":[{"name":"sender","type":"address","internalType":"address"},{"name":"key","type":"tuple","internalType":"struct PoolKey","components":[{"name":"currency0","type":"address","internalType":"Currency"},{"name":"currency1","type":"address","internalType":"Currency"},{"name":"fee","type":"uint24","internalType":"uint24"},{"name":"tickSpacing","type":"int24","internalType":"int24"},{"name":"hooks","type":"address","internalType":"contract IHooks"}]},{"name":"sqrtPriceX96","type":"uint160","internalType":"uint160"},{"name":"tick","type":"int24","internalType":"int24"}],"outputs":[{"name":"","type":"bytes4","internalType":"bytes4"}],"stateMutability":"nonpayable"},{"type":"function","name":"afterRemoveLiquidity","inputs":[{"name":"sender","type":"address","internalType":"address"},{"name":"key","type":"tuple","internalType":"struct PoolKey","components":[{"name":"currency0","type":"address","internalType":"Currency"},{"name":"currency1","type":"address","internalType":"Currency"},{"name":"fee","type":"uint24","internalType":"uint24"},{"name":"tickSpacing","type":"int24","internalType":"int24"},{"name":"hooks","type":"address","internalType":"contract IHooks"}]},{"name":"params","type":"tuple","internalType":"struct ModifyLiquidityParams","components":[{"name":"tickLower","type":"int24","internalType":"int24"},{"name":"tickUpper","type":"int24","internalType":"int24"},{"name":"liquidityDelta","type":"int256","internalType":"int256"},{"name":"salt","type":"bytes32","internalType":"bytes32"}]},{"name":"delta","type":"int256","internalType":"BalanceDelta"},{"name":"feesAccrued","type":"int256","internalType":"BalanceDelta"},{"name":"hookData","type":"bytes","internalType":"bytes"}],"outputs":[{"name":"","type":"bytes4","internalType":"bytes4"},{"name":"","type":"int256","internalType":"BalanceDelta"}],"stateMutability":"nonpayable"},{"type":"function","name":"afterSwap","inputs":[{"name":"sender","type":"address","internalType":"address"},{"name":"key","type":"tuple","internalType":"struct PoolKey","components":[{"name":"currency0","type":"address","internalType":"Currency"},{"name":"currency1","type":"address","internalType":"Currency"},{"name":"fee","type":"uint24","internalType":"uint24"},{"name":"tickSpacing","type":"int24","internalType":"int24"},{"name":"hooks","type":"address","internalType":"contract IHooks"}]},{"name":"params","type":"tuple","internalType":"struct SwapParams","components":[{"name":"zeroForOne","type":"bool","internalType":"bool"},{"name":"amountSpecified","type":"int256","internalType":"int256"},{"name":"sqrtPriceLimitX96","type":"uint160","internalType":"uint160"}]},{"name":"delta","type":"int256","internalType":"BalanceDelta"},{"name":"hookData","type":"bytes","internalType":"bytes"}],"outputs":[{"name":"","type":"bytes4","internalType":"bytes4"},{"name":"","type":"int128","internalType":"int128"}],"stateMutability":"nonpayable"},{"type":"function","name":"authorizedManagers","inputs":[{"name":"","type":"address","internalType":"address"}],"outputs":[{"name":"","type":"bool","internalType":"bool"}],"stateMutability":"view"},{"type":"function","name":"beforeAddLiquidity","inputs":[{"name":"sender","type":"address","internalType":"address"},{"name":"key","type":"tuple","internalType":"struct PoolKey","components":[{"name":"currency0","type":"address","internalType":"Currency"},{"name":"currency1","type":"address","internalType":"Currency"},{"name":"fee","type":"uint24","internalType":"uint24"},{"name":"tickSpacing","type":"int24","internalType":"int24"},{"name":"hooks","type":"address","internalType":"contract IHooks"}]},{"name":"params","type":"tuple","internalType":"struct ModifyLiquidityParams","components":[{"name":"tickLower","type":"int24","internalType":"int24"},{"name":"tickUpper","type":"int24","internalType":"int24"},{"name":"liquidityDelta","type":"int256","internalType":"int256"},{"name":"salt","type":"bytes32","internalType":"bytes32"}]},{"name":"hookData","type":"bytes","internalType":"bytes"}],"outputs":[{"name":"","type":"bytes4","internalType":"bytes4"}],"stateMutability":"nonpayable"},{"type":"function","name":"beforeDonate","inputs":[{"name":"sender","type":"address","internalType":"address"},{"name":"key","type":"tuple","internalType":"struct PoolKey","components":[{"name":"currency0","type":"address","internalType":"Currency"},{"name":"currency1","type":"address","internalType":"Currency"},{"name":"fee","type":"uint24","internalType":"uint24"},{"name":"tickSpacing","type":"int24","internalType":"int24"},{"name":"hooks","type":"address","internalType":"contract IHooks"}]},{"name":"amount0","type":"uint256","internalType":"uint256"},{"name":"amount1","type":"uint256","internalType":"uint256"},{"name":"hookData","type":"bytes","internalType":"bytes"}],"outputs":[{"name":"","type":"bytes4","internalType":"bytes4"}],"stateMutability":"nonpayable"},{"type":"function","name":"beforeInitialize","inputs":[{"name":"sender","type":"address","internalType":"address"},{"name":"key","type":"tuple","internalType":"struct PoolKey","components":[{"name":"currency0","type":"address","internalType":"Currency"},{"name":"currency1","type":"address","internalType":"Currency"},{"name":"fee","type":"uint24","internalType":"uint24"},{"name":"tickSpacing","type":"int24","internalType":"int24"},{"name":"hooks","type":"address","internalType":"contract IHooks"}]},{"name":"sqrtPriceX96","type":"uint160","internalType":"uint160"}],"outputs":[{"name":"","type":"bytes4","internalType":"bytes4"}],"stateMutability":"nonpayable"},{"type":"function","name":"beforeRemoveLiquidity","inputs":[{"name":"sender","type":"address","internalType":"address"},{"name":"key","type":"tuple","internalType":"struct PoolKey","components":[{"name":"currency0","type":"address","internalType":"Currency"},{"name":"currency1","type":"address","internalType":"Currency"},{"name":"fee","type":"uint24","internalType":"uint24"},{"name":"tickSpacing","type":"int24","internalType":"int24"},{"name":"hooks","type":"address","internalType":"contract IHooks"}]},{"name":"params","type":"tuple","internalType":"struct ModifyLiquidityParams","components":[{"name":"tickLower","type":"int24","internalType":"int24"},{"name":"tickUpper","type":"int24","internalType":"int24"},{"name":"liquidityDelta","type":"int256","internalType":"int256"},{"name":"salt","type":"bytes32","internalType":"bytes32"}]},{"name":"hookData","type":"bytes","internalType":"bytes"}],"outputs":[{"name":"","type":"bytes4","internalType":"bytes4"}],"stateMutability":"nonpayable"},{"type":"function","name":"beforeSwap","inputs":[{"name":"sender","type":"address","internalType":"address"},{"name":"key","type":"tuple","internalType":"struct PoolKey","components":[{"name":"currency0","type":"address","internalType":"Currency"},{"name":"currency1","type":"address","internalType":"Currency"},{"name":"fee","type":"uint24","internalType":"uint24"},{"name":"tickSpacing","type":"int24","internalType":"int24"},{"name":"hooks","type":"address","internalType":"contract IHooks"}]},{"name":"params","type":"tuple","internalType":"struct SwapParams","components":[{"name":"zeroForOne","type":"bool","internalType":"bool"},{"name":"amountSpecified","type":"int256","internalType":"int256"},{"name":"sqrtPriceLimitX96","type":"uint160","internalType":"uint160"}]},{"name":"hookData","type":"bytes","internalType":"bytes"}],"outputs":[{"name":"","type":"bytes4","internalType":"bytes4"},{"name":"","type":"int256","internalType":"BeforeSwapDelta"},{"name":"","type":"uint24","internalType":"uint24"}],"stateMutability":"nonpayable"},{"type":"function","name":"calculateDynamicFee","inputs":[{"name":"key","type":"tuple","internalType":"struct PoolKey","components":[{"name":"currency0","type":"address","internalType":"Currency"},{"name":"currency1","type":"address","internalType":"Currency"},{"name":"fee","type":"uint24","internalType":"uint24"},{"name":"tickSpacing","type":"int24","internalType":"int24"},{"name":"hooks","type":"address","internalType":"contract IHooks"}]}],"outputs":[{"name":"fee","type":"uint24","internalType":"uint24"}],"stateMutability":"view"},{"type":"function","name":"dynamicFees","inputs":[{"name":"","type":"bytes32","internalType":"PoolId"}],"outputs":[{"name":"currentFee","type":"uint24","internalType":"uint24"},{"name":"baseFee","type":"uint24","internalType":"uint24"},{"name":"lastUpdate","type":"uint256","internalType":"uint256"},{"name":"volatilityScore","type":"uint256","internalType":"uint256"},{"name":"mevRiskScore","type":"uint256","internalType":"uint256"}],"stateMutability":"view"},{"type":"function","name":"eigenAVS","inputs":[],"outputs":[{"name":"","type":"address","internalType":"contract CipherFlowAVS"}],"stateMutability":"view"},{"type":"function","name":"emergencyPausePool","inputs":[{"name":"poolId","type":"bytes32","internalType":"PoolId"}],"outputs":[],"stateMutability":"nonpayable"},{"type":"function","name":"emergencyPaused","inputs":[{"name":"","type":"bytes32","internalType":"PoolId"}],"outputs":[{"name":"","type":"bool","internalType":"bool"}],"stateMutability":"view"},{"type":"function","name":"emergencyRecover","inputs":[{"name":"token","type":"address","internalType":"address"},{"name":"amount","type":"uint256","internalType":"uint256"},{"name":"recipient","type":"address","internalType":"address"}],"outputs":[],"stateMutability":"nonpayable"},{"type":"function","name":"encryptLPPosition","inputs":[{"name":"key","type":"tuple","internalType":"struct PoolKey","components":[{"name":"currency0","type":"address","internalType":"Currency"},{"name":"currency1","type":"address","internalType":"Currency"},{"name":"fee","type":"uint24","internalType":"uint24"},{"name":"tickSpacing","type":"int24","internalType":"int24"},{"name":"hooks","type":"address","internalType":"contract IHooks"}]},{"name":"params","type":"tuple","internalType":"struct ModifyLiquidityParams","components":[{"name":"tickLower","type":"int24","internalType":"int24"},{"name":"tickUpper","type":"int24","internalType":"int24"},{"name":"liquidityDelta","type":"int256","internalType":"int256"},{"name":"salt","type":"bytes32","internalType":"bytes32"}]},{"name":"strategyData","type":"bytes","internalType":"bytes"}],"outputs":[{"name":"positionId","type":"bytes32","internalType":"bytes32"}],"stateMutability":"nonpayable"},{"type":"function","name":"getCurrentMEVRiskScore","inputs":[{"name":"poolId","type":"bytes32","internalType":"PoolId"}],"outputs":[{"name":"","type":"uint256","internalType":"uint256"}],"stateMutability":"view"},{"type":"function","name":"getDynamicFeeData","inputs":[{"name":"poolId","type":"bytes32","internalType":"PoolId"}],"outputs":[{"name":"feeData","type":"tuple","internalType":"struct ICipherFlowHook.DynamicFeeData","components":[{"name":"currentFee","type":"uint24","internalType":"uint24"},{"name":"baseFee","type":"uint24","internalType":"uint24"},{"name":"lastUpdate","type":"uint256","internalType":"uint256"},{"name":"volatilityScore","type":"uint256","internalType":"uint256"},{"name":"mevRiskScore","type":"uint256","internalType":"uint256"}]}],"stateMutability":"view"},{"type":"function","name":"getEncryptedPosition","inputs":[{"name":"positionId","type":"bytes32","internalType":"bytes32"},{"name":"userPublicKey","type":"bytes32","internalType":"bytes32"}],"outputs":[{"name":"sealedData","type":"bytes","internalType":"bytes"}],"stateMutability":"view"},{"type":"function","name":"getHookPermissions","inputs":[],"outputs":[{"name":"","type":"tuple","internalType":"struct Hooks.Permissions","components":[{"name":"beforeInitialize","type":"bool","internalType":"bool"},{"name":"afterInitialize","type":"bool","internalType":"bool"},{"name":"beforeAddLiquidity","type":"bool","internalType":"bool"},{"name":"afterAddLiquidity","type":"bool","internalType":"bool"},{"name":"beforeRemoveLiquidity","type":"bool","internalType":"bool"},{"name":"afterRemoveLiquidity","type":"bool","internalType":"bool"},{"name":"beforeSwap","type":"bool","internalType":"bool"},{"name":"afterSwap","type":"bool","internalType":"bool"},{"name":"beforeDonate","type":"bool","internalType":"bool"},{"name":"afterDonate","type":"bool","internalType":"bool"},{"name":"beforeSwapReturnDelta","type":"bool","internalType":"bool"},{"name":"afterSwapReturnDelta","type":"bool","internalType":"bool"},{"name":"afterAddLiquidityReturnDelta","type":"bool","internalType":"bool"},{"name":"afterRemoveLiquidityReturnDelta","type":"bool","internalType":"bool"}]}],"stateMutability":"pure"},{"type":"function","name":"getMEVProtectionConfig","inputs":[{"name":"poolId","type":"bytes32","internalType":"PoolId"}],"outputs":[{"name":"config","type":"tuple","internalType":"struct ICipherFlowHook.MEVProtectionConfig","components":[{"name":"volatilityThreshold","type":"uint256","internalType":"uint256"},{"name":"baseFeeMultiplier","type":"uint256","internalType":"uint256"},{"name":"maxFeeMultiplier","type":"uint256","internalType":"uint256"},{"name":"mevDetectionWindow","type":"uint256","internalType":"uint256"},{"name":"isEnabled","type":"bool","internalType":"bool"},{"name":"lastUpdate","type":"uint256","internalType":"uint256"}]}],"stateMutability":"view"},{"type":"function","name":"getPoolHealthMetrics","inputs":[{"name":"poolId","type":"bytes32","internalType":"PoolId"}],"outputs":[{"name":"totalLiquidity","type":"uint256","internalType":"uint256"},{"name":"currentVolatility","type":"uint256","internalType":"uint256"},{"name":"mevRiskScore","type":"uint256","internalType":"uint256"},{"name":"rewardPool","type":"uint256","internalType":"uint256"},{"name":"isHealthy","type":"bool","internalType":"bool"}],"stateMutability":"view"},{"type":"function","name":"getUserPositions","inputs":[{"name":"user","type":"address","internalType":"address"}],"outputs":[{"name":"","type":"bytes32[]","internalType":"bytes32[]"}],"stateMutability":"view"},{"type":"function","name":"getVolatilityHistory","inputs":[{"name":"poolId","type":"bytes32","internalType":"PoolId"}],"outputs":[{"name":"","type":"uint256[]","internalType":"uint256[]"}],"stateMutability":"view"},{"type":"function","name":"isMEVProtectionEnabled","inputs":[{"name":"poolId","type":"bytes32","internalType":"PoolId"}],"outputs":[{"name":"","type":"bool","internalType":"bool"}],"stateMutability":"view"},{"type":"function","name":"mevConfigs","inputs":[{"name":"","type":"bytes32","internalType":"PoolId"}],"outputs":[{"name":"volatilityThreshold","type":"uint256","internalType":"uint256"},{"name":"baseFeeMultiplier","type":"uint256","internalType":"uint256"},{"name":"maxFeeMultiplier","type":"uint256","internalType":"uint256"},{"name":"mevDetectionWindow","type":"uint256","internalType":"uint256"},{"name":"isEnabled","type":"bool","internalType":"bool"},{"name":"lastUpdate","type":"uint256","internalType":"uint256"}],"stateMutability":"view"},{"type":"function","name":"mevRewardsPool","inputs":[{"name":"","type":"bytes32","internalType":"PoolId"}],"outputs":[{"name":"","type":"uint256","internalType":"uint256"}],"stateMutability":"view"},{"type":"function","name":"owner","inputs":[],"outputs":[{"name":"","type":"address","internalType":"address"}],"stateMutability":"view"},{"type":"function","name":"pause","inputs":[],"outputs":[],"stateMutability":"nonpayable"},{"type":"function","name":"paused","inputs":[],"outputs":[{"name":"","type":"bool","internalType":"bool"}],"stateMutability":"view"},{"type":"function","name":"poolManager","inputs":[],"outputs":[{"name":"","type":"address","internalType":"contract IPoolManager"}],"stateMutability":"view"},{"type":"function","name":"removeAuthorizedManager","inputs":[{"name":"manager","type":"address","internalType":"address"}],"outputs":[],"stateMutability":"nonpayable"},{"type":"function","name":"renounceOwnership","inputs":[],"outputs":[],"stateMutability":"nonpayable"},{"type":"function","name":"resumePool","inputs":[{"name":"poolId","type":"bytes32","internalType":"PoolId"}],"outputs":[],"stateMutability":"nonpayable"},{"type":"function","name":"submitEncryptedOrder","inputs":[{"name":"order","type":"tuple","internalType":"struct ICipherFlowHook.EncryptedOrder","components":[{"name":"encryptedAmount","type":"tuple","internalType":"struct FhenixDemo.euint256","components":[{"name":"value","type":"uint256","internalType":"uint256"},{"name":"initialized","type":"bool","internalType":"bool"}]},{"name":"encryptedMinOut","type":"tuple","internalType":"struct FhenixDemo.euint256","components":[{"name":"value","type":"uint256","internalType":"uint256"},{"name":"initialized","type":"bool","internalType":"bool"}]},{"name":"encryptedDeadline","type":"tuple","internalType":"struct FhenixDemo.euint64","components":[{"name":"value","type":"uint64","internalType":"uint64"},{"name":"initialized","type":"bool","internalType":"bool"}]},{"name":"swapper","type":"address","internalType":"address"},{"name":"poolId","type":"bytes32","internalType":"PoolId"},{"name":"isExactInput","type":"bool","internalType":"bool"}]}],"outputs":[{"name":"batchId","type":"bytes32","internalType":"bytes32"}],"stateMutability":"nonpayable"},{"type":"function","name":"totalEncryptedLiquidity","inputs":[{"name":"","type":"bytes32","internalType":"PoolId"}],"outputs":[{"name":"","type":"uint256","internalType":"uint256"}],"stateMutability":"view"},{"type":"function","name":"transferOwnership","inputs":[{"name":"newOwner","type":"address","internalType":"address"}],"outputs":[],"stateMutability":"nonpayable"},{"type":"function","name":"unpause","inputs":[],"outputs":[],"stateMutability":"nonpayable"},{"type":"function","name":"updateMEVProtectionConfig","inputs":[{"name":"poolId","type":"bytes32","internalType":"PoolId"},{"name":"config","type":"tuple","internalType":"struct ICipherFlowHook.MEVProtectionConfig","components":[{"name":"volatilityThreshold","type":"uint256","internalType":"uint256"},{"name":"baseFeeMultiplier","type":"uint256","internalType":"uint256"},{"name":"maxFeeMultiplier","type":"uint256","internalType":"uint256"},{"name":"mevDetectionWindow","type":"uint256","internalType":"uint256"},{"name":"isEnabled","type":"bool","internalType":"bool"},{"name":"lastUpdate","type":"uint256","internalType":"uint256"}]}],"outputs":[],"stateMutability":"nonpayable"},{"type":"event","name":"ConfidentialStrategyExecuted","inputs":[{"name":"poolId","type":"bytes32","indexed":true,"internalType":"PoolId"},{"name":"strategyHash","type":"bytes32","indexed":true,"internalType":"bytes32"},{"name":"executor","type":"address","indexed":true,"internalType":"address"},{"name":"timestamp","type":"uint256","indexed":false,"internalType":"uint256"}],"anonymous":false},{"type":"event","name":"CrossPoolArbitragePrevented","inputs":[{"name":"pool1","type":"bytes32","indexed":true,"internalType":"PoolId"},{"name":"pool2","type":"bytes32","indexed":true,"internalType":"PoolId"},{"name":"potentialProfit","type":"uint256","indexed":false,"internalType":"uint256"},{"name":"timestamp","type":"uint256","indexed":false,"internalType":"uint256"}],"anonymous":false},{"type":"event","name":"DynamicFeeUpdated","inputs":[{"name":"poolId","type":"bytes32","indexed":true,"internalType":"PoolId"},{"name":"oldFee","type":"uint24","indexed":false,"internalType":"uint24"},{"name":"newFee","type":"uint24","indexed":false,"internalType":"uint24"},{"name":"reason","type":"string","indexed":false,"internalType":"string"},{"name":"volatilityScore","type":"uint256","indexed":false,"internalType":"uint256"}],"anonymous":false},{"type":"event","name":"LiquidityEncrypted","inputs":[{"name":"poolId","type":"bytes32","indexed":true,"internalType":"PoolId"},{"name":"provider","type":"address","indexed":true,"internalType":"address"},{"name":"positionId","type":"bytes32","indexed":true,"internalType":"bytes32"},{"name":"timestamp","type":"uint256","indexed":false,"internalType":"uint256"}],"anonymous":false},{"type":"event","name":"MEVAttackDetected","inputs":[{"name":"poolId","type":"bytes32","indexed":true,"internalType":"PoolId"},{"name":"attacker","type":"address","indexed":true,"internalType":"address"},{"name":"riskScore","type":"uint256","indexed":false,"internalType":"uint256"},{"name":"timestamp","type":"uint256","indexed":false,"internalType":"uint256"}],"anonymous":false},{"type":"event","name":"MEVProtectionConfigUpdated","inputs":[{"name":"poolId","type":"bytes32","indexed":true,"internalType":"PoolId"},{"name":"config","type":"tuple","indexed":false,"internalType":"struct ICipherFlowHook.MEVProtectionConfig","components":[{"name":"volatilityThreshold","type":"uint256","internalType":"uint256"},{"name":"baseFeeMultiplier","type":"uint256","internalType":"uint256"},{"name":"maxFeeMultiplier","type":"uint256","internalType":"uint256"},{"name":"mevDetectionWindow","type":"uint256","internalType":"uint256"},{"name":"isEnabled","type":"bool","internalType":"bool"},{"name":"lastUpdate","type":"uint256","internalType":"uint256"}]},{"name":"updater","type":"address","indexed":true,"internalType":"address"}],"anonymous":false},{"type":"event","name":"OrderBatchSubmitted","inputs":[{"name":"batchId","type":"bytes32","indexed":true,"internalType":"bytes32"},{"name":"orderCount","type":"uint256","indexed":false,"internalType":"uint256"},{"name":"submitter","type":"address","indexed":true,"internalType":"address"}],"anonymous":false},{"type":"event","name":"OwnershipTransferred","inputs":[{"name":"previousOwner","type":"address","indexed":true,"internalType":"address"},{"name":"newOwner","type":"address","indexed":true,"internalType":"address"}],"anonymous":false},{"type":"event","name":"Paused","inputs":[{"name":"account","type":"address","indexed":false,"internalType":"address"}],"anonymous":false},{"type":"event","name":"PoolInitializedWithCipher","inputs":[{"name":"poolId","type":"bytes32","indexed":true,"internalType":"PoolId"},{"name":"config","type":"tuple","indexed":false,"internalType":"struct ICipherFlowHook.MEVProtectionConfig","components":[{"name":"volatilityThreshold","type":"uint256","internalType":"uint256"},{"name":"baseFeeMultiplier","type":"uint256","internalType":"uint256"},{"name":"maxFeeMultiplier","type":"uint256","internalType":"uint256"},{"name":"mevDetectionWindow","type":"uint256","internalType":"uint256"},{"name":"isEnabled","type":"bool","internalType":"bool"},{"name":"lastUpdate","type":"uint256","internalType":"uint256"}]},{"name":"timestamp","type":"uint256","indexed":false,"internalType":"uint256"}],"anonymous":false},{"type":"event","name":"SwapRoutedToAVS","inputs":[{"name":"poolId","type":"bytes32","indexed":true,"internalType":"PoolId"},{"name":"batchId","type":"bytes32","indexed":true,"internalType":"bytes32"},{"name":"swapper","type":"address","indexed":true,"internalType":"address"},{"name":"mevRiskScore","type":"uint256","indexed":false,"internalType":"uint256"}],"anonymous":false},{"type":"event","name":"Unpaused","inputs":[{"name":"account","type":"address","indexed":false,"internalType":"address"}],"anonymous":false},{"type":"error","name":"AVSSubmissionFailed","inputs":[]},{"type":"error","name":"EncryptionFailed","inputs":[]},{"type":"error","name":"EnforcedPause","inputs":[]},{"type":"error","name":"ExcessiveSwapSize","inputs":[]},{"type":"error","name":"ExpectedPause","inputs":[]},{"type":"error","name":"HookNotImplemented","inputs":[]},{"type":"error","name":"InsufficientLiquidity","inputs":[]},{"type":"error","name":"InvalidFeeConfiguration","inputs":[]},{"type":"error","name":"InvalidPoolKey","inputs":[]},{"type":"error","name":"InvalidVolatilityData","inputs":[]},{"type":"error","name":"MEVProtectionNotEnabled","inputs":[]},{"type":"error","name":"NotPoolManager","inputs":[]},{"type":"error","name":"OwnableInvalidOwner","inputs":[{"name":"owner","type":"address","internalType":"address"}]},{"type":"error","name":"OwnableUnauthorizedAccount","inputs":[{"name":"account","type":"address","internalType":"address"}]},{"type":"error","name":"ReentrancyGuardReentrantCall","inputs":[]},{"type":"error","name":"ToxicOrderFlow","inputs":[]},{"type":"error","name":"UnauthorizedAccess","inputs":[]}],"bytecode":{"object":"0x60c060405234801561000f575f5ffd5b506040516155eb3803806155eb83398101604081905261002e9161011a565b6001600160a01b038316608052806001600160a01b03811661006957604051631e4fbdf760e01b81525f600482015260240160405180910390fd5b610072816100b7565b5060018080556002805460ff199081169091556001600160a01b0393841660a052919092165f908152600a602052604090208054909116909117905550610164565b50565b5f80546001600160a01b038381166001600160a01b0319831681178455604051919092169283917f8be0079c531659141344cd1fd0a4f28419497f9722a3daafe3b4186f6b6457e09190a35050565b6001600160a01b03811681146100b4575f5ffd5b5f5f5f6060848603121561012c575f5ffd5b835161013781610106565b602085015190935061014881610106565b604085015190925061015981610106565b809150509250925092565b60805160a0516154046101e75f395f818161075101528181611d3c0152818161217d01528181612bd401528181612eaf0152613e0001525f818161089101528181610b3001528181610b9101528181610d1701528181610d8001528181610de90152818161117e015281816113c30152818161142a015261148d01526154045ff3fe608060405234801561000f575f5ffd5b5060043610610254575f3560e01c8063929f8dad11610140578063be4bbcf3116100bf578063dc4c90d311610084578063dc4c90d31461088c578063dc98354e146108b3578063dd99d123146108c6578063e1b4af69146106f8578063e9d4f4b7146108d9578063f2fde38b146108fb575f5ffd5b8063be4bbcf31461070b578063c1fd15811461072d578063c326bf921461074c578063c4e833ce14610773578063db02d49414610867575f5ffd5b8063a2000daa11610105578063a2000daa1461063e578063a7e912af14610651578063a83d2fda146106af578063b47b2fb1146106c2578063b6a8b0fa146106f8575f5ffd5b8063929f8dad146105a4578063994e7e2f146105cb5780639a956782146105eb5780639d1743c5146105fe5780639f063efc1461062b575f5ffd5b8063575e24b4116101d7578063715018a61161019c578063715018a6146104ae5780637e15bab6146104b6578063821401fb146104c95780638258beec146105065780638456cb59146105785780638da5cb5b14610580575f5ffd5b8063575e24b4146103a85780635c975abb146103e65780635eb710c3146103f15780636c2bbe7e146104685780636fe7e6eb1461049b575f5ffd5b806321d0ee701161021d57806321d0ee701461032e578063259982e51461035a5780632a6bc2dd1461036d5780633f4ba83a1461038d57806348a90f1014610395575f5ffd5b8062497e76146102585780630129dad31461026d5780630858882b146102d6578063086f93a8146102e95780630a3cb21b146102fc575b5f5ffd5b61026b6102663660046145e2565b61090e565b005b61028061027b3660046145fd565b610939565b6040516102cd91905f60c0820190508251825260208301516020830152604083015160408301526060830151606083015260808301511515608083015260a083015160a083015292915050565b60405180910390f35b61026b6102e43660046145fd565b6109ca565b61026b6102f7366004614614565b6109ec565b61031e61030a3660046145e2565b600a6020525f908152604090205460ff1681565b60405190151581526020016102cd565b61034161033c3660046146b7565b610b24565b6040516001600160e01b031990911681526020016102cd565b6103416103683660046146b7565b610b85565b61038061037b3660046145e2565b610bdc565b6040516102cd919061472d565b61026b610c45565b61026b6103a336600461476f565b610c57565b6103bb6103b63660046147b4565b610d09565b604080516001600160e01b03199094168452602084019290925262ffffff16908201526060016102cd565b60025460ff1661031e565b6104396103ff3660046145fd565b600360208190525f9182526040909120805460018201546002830154938301546004840154600590940154929491939192909160ff169086565b6040805196875260208701959095529385019290925260608401521515608083015260a082015260c0016102cd565b61047b61047636600461480d565b610d73565b604080516001600160e01b031990931683526020830191909152016102cd565b6103416104a93660046148a8565b610ddd565b61026b610e3c565b6103806104c43660046145fd565b610e4d565b6104dc6104d73660046145fd565b610eaa565b6040805195865260208601949094529284019190915260608301521515608082015260a0016102cd565b6105496105143660046145fd565b60046020525f9081526040902080546001820154600283015460039093015462ffffff80841694630100000090940416929085565b6040805162ffffff9687168152959094166020860152928401919091526060830152608082015260a0016102cd565b61026b610ef8565b5f546001600160a01b03165b6040516001600160a01b0390911681526020016102cd565b6105b76105b23660046148ff565b610f08565b60405162ffffff90911681526020016102cd565b6105de6105d9366004614919565b611023565b6040516102cd9190614967565b61026b6105f93660046145fd565b611152565b61061d61060c3660046145fd565b600e6020525f908152604090205481565b6040519081526020016102cd565b61047b61063936600461480d565b611171565b61061d61064c366004614979565b6111cb565b61066461065f3660046145fd565b6112bf565b6040516102cd91905f60a08201905062ffffff835116825262ffffff602084015116602083015260408301516040830152606083015160608301526080830151608083015292915050565b61061d6106bd366004614993565b61134f565b6106d56106d03660046149f3565b6113b6565b604080516001600160e01b03199093168352600f9190910b6020830152016102cd565b610341610706366004614a73565b61141e565b61061d6107193660046145fd565b5f9081526004602052604090206003015490565b61061d61073b3660046145fd565b600d6020525f908152604090205481565b61058c7f000000000000000000000000000000000000000000000000000000000000000081565b61085a604080516101c0810182525f80825260208201819052918101829052606081018290526080810182905260a0810182905260c0810182905260e08101829052610100810182905261012081018290526101408101829052610160810182905261018081018290526101a081019190915250604080516101c081018252600180825260208201819052918101829052606081018290526080810182905260a0810182905260c0810182905260e08101919091525f610100820181905261012082018190526101408201819052610160820181905261018082018190526101a082015290565b6040516102cd9190614acc565b61031e6108753660046145fd565b5f9081526003602052604090206004015460ff1690565b61058c7f000000000000000000000000000000000000000000000000000000000000000081565b6103416108c1366004614bed565b611481565b61026b6108d43660046145e2565b6114e0565b61031e6108e73660046145fd565b600b6020525f908152604090205460ff1681565b61026b6109093660046145e2565b611508565b610916611545565b6001600160a01b03165f908152600a60205260409020805460ff19166001179055565b61096e6040518060c001604052805f81526020015f81526020015f81526020015f81526020015f151581526020015f81525090565b505f90815260036020818152604092839020835160c08101855281548152600182015492810192909252600281015493820193909352908201546060820152600482015460ff161515608082015260059091015460a082015290565b6109d2611545565b5f908152600b60205260409020805460ff19166001179055565b6109f4611545565b6001600160a01b038316610a3b576040516001600160a01b0382169083156108fc029084905f818181858888f19350505050158015610a35573d5f5f3e3d5ffd5b50505050565b6040516001600160a01b038281166024830152604482018490525f919085169060640160408051601f198184030181529181526020820180516001600160e01b031663a9059cbb60e01b17905251610a939190614c29565b5f604051808303815f865af19150503d805f8114610acc576040519150601f19603f3d011682016040523d82523d5f602084013e610ad1565b606091505b5050905080610a355760405162461bcd60e51b8152602060048201526015602482015274151bdad95b881d1c985b9cd9995c8819985a5b1959605a1b60448201526064015b60405180910390fd5b505050565b5f336001600160a01b037f00000000000000000000000000000000000000000000000000000000000000001614610b6e5760405163570c108560e11b815260040160405180910390fd5b610b7b8686868686611571565b9695505050505050565b5f336001600160a01b037f00000000000000000000000000000000000000000000000000000000000000001614610bcf5760405163570c108560e11b815260040160405180910390fd5b610b7b86868686866116b9565b6001600160a01b0381165f90815260066020908152604091829020805483518184028101840190945280845260609392830182828015610c3957602002820191905f5260205f20905b815481526020019060010190808311610c25575b50505050509050919050565b610c4d611545565b610c55611862565b565b335f908152600a602052604090205460ff16158015610c8057505f546001600160a01b03163314155b15610c9e57604051631a27eac360e11b815260040160405180910390fd5b610ca7816118b4565b5f8281526003602052604090208190610cc08282614c58565b905050336001600160a01b0316827f4094d7a3378a4ef1bc09480963016e9fa1ec17eb3cd9792480ddf7ff668f1a5183604051610cfd9190614cab565b60405180910390a35050565b5f8080336001600160a01b037f00000000000000000000000000000000000000000000000000000000000000001614610d555760405163570c108560e11b815260040160405180910390fd5b610d628888888888611a0b565b925092509250955095509592505050565b5f80336001600160a01b037f00000000000000000000000000000000000000000000000000000000000000001614610dbe5760405163570c108560e11b815260040160405180910390fd5b610dcd89898989898989611ca2565b9150915097509795505050505050565b5f336001600160a01b037f00000000000000000000000000000000000000000000000000000000000000001614610e275760405163570c108560e11b815260040160405180910390fd5b610e3385858585611ce6565b95945050505050565b610e44611545565b610c555f611de4565b5f818152600c6020908152604091829020805483518184028101840190945280845260609392830182828015610c3957602002820191905f5260205f2090815481526020019060010190808311610c255750505050509050919050565b5f818152600d6020908152604080832054600483528184206002810154600390910154600e90945291842054909391929161138883108015610eed575061138884105b905091939590929450565b610f00611545565b610c55611e33565b5f80610f23610f1c36859003850185614d75565b60a0902090565b5f818152600460208181526040808420815160a08082018452825462ffffff808216845263010000009091041682860152600180840154838601526002808501546060808601919091526003958601546080808701919091528b8b5286895299879020875160c081018952815481529381015498840198909852908701549582019590955292850154938301939093529383015460ff161515948101859052600590920154908201529293509190610fe15750602001519392505050565b5f60405180606001604052808460800151815260200161100086611e70565b815260200161138885608001511115158152509050610b7b818460200151611ef0565b5f82815260056020818152604092839020835161012081018552815460e08201908152600183015460ff90811615156101008085019190915291835286518088018852600285015463ffffffff8082168352640100000000918290048416151583890152858801929092528851808a018a5260038701549283168152910482161515818701528388015286518088019097526004840154875294830154851615159386019390935260608082019590955260068201546080820152600790910154928316151560a082015291046001600160a01b031660c08201819052331480159061111e5750335f908152600a602052604090205460ff16155b1561113c57604051631a27eac360e11b815260040160405180910390fd5b80516111489084611f57565b9150505b92915050565b61115a611545565b5f908152600b60205260409020805460ff19169055565b5f80336001600160a01b037f000000000000000000000000000000000000000000000000000000000000000016146111bc5760405163570c108560e11b815260040160405180910390fd5b610dcd89898989898989611f63565b5f6111d4611fb2565b336111e560e0840160c085016145e2565b6001600160a01b03161461122d5760405162461bcd60e51b815260206004820152600f60248201526e24b73b30b634b21039bbb0b83832b960891b6044820152606401610b16565b5f9081526008602081815260408084205481514281850152438184015233606082015260e0870135608082015260a0808201929092528251808203909201825260c0018252805190830120808552838352908420805460018101825590855291909320849291909102016112a18282614df7565b50506112ac81611fd6565b156112ba576112ba81612022565b919050565b6112f66040518060a001604052805f62ffffff1681526020015f62ffffff1681526020015f81526020015f81526020015f81525090565b505f90815260046020908152604091829020825160a081018452815462ffffff80821683526301000000909104169281019290925260018101549282019290925260028201546060820152600390910154608082015290565b5f848161135f60208301836145e2565b6001600160a01b0316148061138b57505f61138060408301602084016145e2565b6001600160a01b0316145b156113a95760405163c256622b60e01b815260040160405180910390fd5b610b7b8686338787612278565b5f80336001600160a01b037f000000000000000000000000000000000000000000000000000000000000000016146114015760405163570c108560e11b815260040160405180910390fd5b61140f888888888888612576565b91509150965096945050505050565b5f336001600160a01b037f000000000000000000000000000000000000000000000000000000000000000016146114685760405163570c108560e11b815260040160405180910390fd5b611476878787878787612616565b979650505050505050565b5f336001600160a01b037f000000000000000000000000000000000000000000000000000000000000000016146114cb5760405163570c108560e11b815260040160405180910390fd5b6114d6848484612630565b90505b9392505050565b6114e8611545565b6001600160a01b03165f908152600a60205260409020805460ff19169055565b611510611545565b6001600160a01b03811661153957604051631e4fbdf760e01b81525f6004820152602401610b16565b61154281611de4565b50565b5f546001600160a01b03163314610c555760405163118cdaa760e01b8152336004820152602401610b16565b5f848161158160208301836145e2565b6001600160a01b031614806115ad57505f6115a260408301602084016145e2565b6001600160a01b0316145b156115cb5760405163c256622b60e01b815260040160405180910390fd5b5f6115de610f1c36899003890189614d75565b90506115eb81878a61289c565b156116385760408051610bb881524260208201526001600160a01b038a169183917f1c451ef2c084f8ae3bc9666f093097b726a4bc877c6b30f0568f38990ecaf146910160405180910390a35b611643878988612913565b5f866040013512156116a5575f61165d6040880135614f2c565b6001600160801b0316905080600d5f8481526020019081526020015f2054106116a3575f828152600d60205260408120805483929061169d908490614f46565b90915550505b505b5063021d0ee760e41b979650505050505050565b5f84816116c960208301836145e2565b6001600160a01b031614806116f557505f6116ea60408301602084016145e2565b6001600160a01b0316145b156117135760405163c256622b60e01b815260040160405180910390fd5b611725610f1c36889003880188614d75565b5f818152600b602052604090205460ff161561177b5760405162461bcd60e51b8152602060048201526015602482015274141bdbdb08195b595c99d95b98de481c185d5cd959605a1b6044820152606401610b16565b611783611fb2565b5f611796610f1c368a90038a018a614d75565b90506117a381888b612a6a565b156117c157604051634bec6b6560e01b815260040160405180910390fd5b5f6117cf89898c8a8a612278565b90505f88604001351315611805575f828152600d60205260408082208054918b01359290916117ff908490614f59565b90915550505b808a6001600160a01b0316837f62ea441f853ee456fdd07ae07a9591d2aa2948fbbd739188b69137732ecae63b4260405161184291815260200190565b60405180910390a45063259982e560e01b9350505b505095945050505050565b61186a612b2e565b6002805460ff191690557f5db9ee0a495bf2e6ff9c91a7834c1ba4fdd244a5e8aa4e537bd38aeae4b073aa335b6040516001600160a01b03909116815260200160405180910390a1565b80602001358160400135101561190c5760405162461bcd60e51b815260206004820152601760248201527f496e76616c696420666565206d756c7469706c696572730000000000000000006044820152606401610b16565b6127108135111561195f5760405162461bcd60e51b815260206004820152601c60248201527f496e76616c696420766f6c6174696c697479207468726573686f6c64000000006044820152606401610b16565b6101f4816040013511156119b55760405162461bcd60e51b815260206004820152601b60248201527f4d617820666565206d756c7469706c69657220746f6f206869676800000000006044820152606401610b16565b610e10816060013511156115425760405162461bcd60e51b815260206004820152601960248201527f446574656374696f6e2077696e646f7720746f6f206c6f6e67000000000000006044820152606401610b16565b5f80808681611a1d60208301836145e2565b6001600160a01b03161480611a4957505f611a3e60408301602084016145e2565b6001600160a01b0316145b15611a675760405163c256622b60e01b815260040160405180910390fd5b611a79610f1c368a90038a018a614d75565b5f818152600b602052604090205460ff1615611acf5760405162461bcd60e51b8152602060048201526015602482015274141bdbdb08195b595c99d95b98de481c185d5cd959605a1b6044820152606401610b16565b611ad7611fb2565b611adf612b51565b5f611af2610f1c368c90038c018c614d75565b90505f611b008b8b8e612b7b565b80515f848152600460205260409020600301559050611b20828d8c612d4b565b15611b85578051604080519182524260208301526001600160a01b038e169184917f1c451ef2c084f8ae3bc9666f093097b726a4bc877c6b30f0568f38990ecaf146910160405180910390a3604051634bec6b6560e01b815260040160405180910390fd5b611b8f818b612db0565b15611c05575f611ba28c8c8f8d8d612de0565b90508c6001600160a01b031681847fbfa8f92438736877aef87ac68446e6eed49d4ab7b15ad060898577a21b963de5855f0151604051611be491815260200190565b60405180910390a4506315d7892d60e21b96505f9550859450611c8c915050565b5f611c108c83612f94565b90508815611c7a575f8a8a604051611c29929190614f6c565b604051809103902090508d6001600160a01b031681857fa35396b004ea50556c2d2f53b6c7048edf9eb8a2346c90be2b95d8307ca9fdd642604051611c7091815260200190565b60405180910390a4505b6315d7892d60e21b97505f9650945050505b611c9560018055565b5050955095509592505050565b5f8080611cb7610f1c368b90038b018b614d75565b9050611cc481898961322c565b611cce81886132bc565b50633615df3f60e11b995f9950975050505050505050565b5f80611cfa610f1c36879003870187614d75565b9050611d058161332c565b6040805160208101829052600c60608201526b1353d3925513d497d413d3d360a21b60808201529081018290526001600160a01b037f0000000000000000000000000000000000000000000000000000000000000000169063966e58979060a0016040516020818303038152906040526040518263ffffffff1660e01b8152600401611d919190614967565b6020604051808303815f875af1925050508015611dcb575060408051601f3d908101601f19168201909252611dc891810190614f7b565b60015b15611dd257505b50636fe7e6eb60e01b95945050505050565b5f80546001600160a01b038381166001600160a01b0319831681178455604051919092169283917f8be0079c531659141344cd1fd0a4f28419497f9722a3daafe3b4186f6b6457e09190a35050565b611e3b611fb2565b6002805460ff191660011790557f62e78cea01bee320cd4e420270b5ea74000d11b0c9f74754ebdbfc544b05a2586118973390565b5f818152600c6020526040812054611f40906005811015611e95576113889150611ea4565b6014811015611ea457611b5891505b5f84815260046020526040812060010154611ebf9042614f46565b9050610258811115611ee757612710611eda84611f40614f92565b611ee49190614fbd565b92505b50909392505050565b5f826040015115611f1e576064611f0d62ffffff84166096614f92565b611f179190614fbd565b9050611f3e565b82516113881015611f3b576064611f0d62ffffff8416607d614f92565b50805b6127108162ffffff16111561114c575061271092915050565b60606114d98383613357565b5f8080611f78610f1c368b90038b018b614d75565b9050611f85898b896133d9565b611f8f8188613544565b611f9a8189896135de565b506327c18fbf60e21b995f9950975050505050505050565b60025460ff1615610c555760405163d93c066560e01b815260040160405180910390fd5b5f8181526008602052604081205460328110611ff55750600192915050565b5f8111801561200c575061200a603c42614fd0565b155b1561201a5750600192915050565b505f92915050565b5f8181526009602052604090205460ff161561203b5750565b5f81815260086020908152604080832080548251818502810185019093528083529192909190849084015b82821015612132575f848152602090819020604080516101008101825260088602909201805460c0840190815260018083015460ff908116151560e0870152918552835180850185526002840154815260038401548316151581880152858701528351808501855260048401546001600160401b038116825268010000000000000000900483161515818801529385019390935260058201546001600160a01b031660608501526006820154608085015260079091015416151560a08301529083529092019101612066565b50505050905080515f03612144575050565b5f816040516020016121569190615062565b60408051601f1981840301815290829052635861a29d60e01b825291506001600160a01b037f00000000000000000000000000000000000000000000000000000000000000001690635861a29d906121b2908490600401614967565b6020604051808303815f875af19250505080156121ec575060408051601f3d908101601f191682019092526121e991810190614f7b565b60015b6122095760405163b7ca296160e01b815260040160405180910390fd5b5f8481526009602052604090819020805460ff1916600117905583519051309183917f57280fd2c0441bd031a27ce2d8417a152c5fce92c45f25a5c79c03d95880aacf9161225a9190815260200190565b60405180910390a35f848152600860205260408120610a35916144e5565b5f8061228c610f1c36899003890189614d75565b5f8181526007602052604081208054929350839288929091906122ae836150a5565b909155506040805160208101949094526001600160a01b039092169183019190915260608201524260808201524360a082015260c0016040516020818303038152906040528051906020012091505f6123255f886040013513612311575f612317565b87604001355b6001600160801b0316613737565b90505f61234061233860208a018a6150bd565b60020b613773565b90505f61235661233860408b0160208c016150bd565b90505f61237887612367575f613737565b612373888a018a6145fd565b613737565b90506040518060e001604052808581526020018481526020018381526020018281526020014281526020016001151581526020018a6001600160a01b031681525060055f8881526020019081526020015f205f820151815f015f820151815f01556020820151816001015f6101000a81548160ff02191690831515021790555050506020820151816002015f820151815f015f6101000a81548163ffffffff021916908363ffffffff1602179055506020820151815f0160046101000a81548160ff02191690831515021790555050506040820151816003015f820151815f015f6101000a81548163ffffffff021916908363ffffffff1602179055506020820151815f0160046101000a81548160ff02191690831515021790555050506060820151816004015f820151815f01556020820151816001015f6101000a81548160ff02191690831515021790555050506080820151816006015560a0820151816007015f6101000a81548160ff02191690831515021790555060c08201518160070160016101000a8154816001600160a01b0302191690836001600160a01b0316021790555090505060065f8a6001600160a01b03166001600160a01b031681526020019081526020015f2086908060018154018082558091505060019003905f5260205f20015f9091909190915055505050505095945050505050565b5f808061258b610f1c368a90038a018a614d75565b90505f6125998989896137b5565b90506125a6828989613845565b6125b1828989613a14565b80156125e4575f828152600e6020526040812080548392906125d4908490614f59565b909155506125e490508282613a94565b6125ee8288613aba565b84156125ff576125ff828787613afb565b63b47b2fb160e01b9a909950975050505050505050565b5f604051630a85dc2960e01b815260040160405180910390fd5b5f828161264060208301836145e2565b6001600160a01b0316148061266c57505f61266160408301602084016145e2565b6001600160a01b0316145b1561268a5760405163c256622b60e01b815260040160405180910390fd5b5f61269d610f1c36879003870187614d75565b6040805160c0810182526103e88082526064602080840182815260c885870181815261012c6060808901918252600160808a018181524260a0808d019182525f8f815260039a8b90528e90209c518d5597518c840155945160028c01559251968a0196909655905160048901805460ff1916911515919091179055905160059097019690965586519182018752969750929591949193909291829161274791908d01908d016150d6565b62ffffff16815260200161276160608c0160408d016150d6565b62ffffff9081168252426020808401919091525f604080850182905260609485018290528a8252600483528082208651815488860151871663010000000265ffffffffffff1990911691909616179490941784558581015160018501559385015160028401556080909401516003909201919091558151838152808201808452898552600c9092529190922090516127f99290614503565b50847f2a64a29b85d986233cfb5b7192dabaf3ce8412a10dd458d00e2bc5d62bbbcbef60035f8881526020019081526020015f204260405161287e92919082548152600183015460208201526002830154604082015260038301546060820152600483015460ff161515608082015260059092015460a083015260c082015260e00190565b60405180910390a250636e4c1aa760e11b9998505050505050505050565b5f5f8360400135121561290a575f6128b76040850135614f2c565b5f868152600d60205260409020546001600160801b0391909116915080158015906128f7575060646128ea82601e614f92565b6128f49190614fbd565b82115b15612907576001925050506114d9565b50505b505f9392505050565b6001600160a01b0382165f9081526006602090815260408083208054825181850281018501909352808352919290919083018282801561297057602002820191905f5260205f20905b81548152602001906001019080831161295c575b509394505f93505050505b8151811015612a63575f60055f84848151811061299a5761299a6150ef565b602002602001015181526020019081526020015f209050806007015f9054906101000a900460ff166129cc5750612a5b565b600781015460ff1615612a59575f84604001351215612a53575f6129f36040860135614f2c565b6040805180820190915283548152600184015460ff16151560208201526001600160801b039190911691505f612a2883613737565b9050612a348282613b1a565b805185556020015160018501805460ff19169115159190911790555050505b50612a63565b505b60010161297b565b5050505050565b5f5f8360400135131561290a575f5f846040013513612a9557612a906040850135614f2c565b612a9b565b83604001355b5f868152600d60205260409020546001600160801b039190911691508015801590612acf5750612acc600282614fbd565b82115b15612adf576001925050506114d9565b5f612aed60208701876150bd565b612afd60408801602089016150bd565b612b079190615103565b90506127108160020b1315612b2257600193505050506114d9565b505050505f9392505050565b60025460ff16610c5557604051638dfc202b60e01b815260040160405180910390fd5b600260015403612b7457604051633ee5aeb560e01b815260040160405180910390fd5b6002600155565b612b9e60405180606001604052805f81526020015f81526020015f151581525090565b5f612bb1610f1c36879003870187614d75565b604051630dd1253160e31b8152600481018290529091505f906001600160a01b037f00000000000000000000000000000000000000000000000000000000000000001690636e8929889060240160a060405180830381865afa158015612c19573d5f5f3e3d5ffd5b505050506040513d601f19601f82011682018060405250810190612c3d9190615128565b60408051608081018252825181526020808401519082015261012c818301529082015160608201529091505f612c7836899003890189614d75565b90505f612c9482612c8e368b90038b018b615180565b85613b37565b8051909150612ca38887613c2d565b612cad9082614f59565b9050612cb9868a613c54565b612cc39082614f59565b9050612cce86613cb3565b612cd89082614f59565b9050612ce4868a613cfa565b612cee9082614f59565b9050612710811115612cff57506127105b6040518060600160405280828152602001612d1e888560200151613d84565b815260200161138883118015612d395750611f408460200151115b151590529a9950505050505050505050565b5f5f5f836020013512612d62578260200135612d6f565b612d6f6020840135614f2c565b9050683635c9adc5dea00000811115612da6575f858152600460205260409020600201546113881015612da65760019150506114d9565b505f949350505050565b5f5f5f836020013512612dc7578260200135612dd4565b612dd46020840135614f2c565b90506111488482613ee3565b5f5f6040518060c00160405280612e125f896020013512612e05578860200135613737565b61237360208a0135614f2c565b8152602001612e205f613737565b8152602001612e39612e344261012c614f59565b613f04565b81526001600160a01b0387166020820152604001612e5f610f1c368b90038b018b614d75565b81526020015f886020013513151581525090505f818585604051602001612e88939291906151e8565b60408051601f1981840301815290829052635861a29d60e01b825291506001600160a01b037f00000000000000000000000000000000000000000000000000000000000000001690635861a29d90612ee4908490600401614967565b6020604051808303815f875af1925050508015612f1e575060408051601f3d908101601f19168201909252612f1b91810190614f7b565b60015b612f88574286604051602001612f6b9291906060808252600b908201526a0989e868298be8482a886960ab1b608082015260208101929092526001600160a01b0316604082015260a00190565b604051602081830303815290604052805190602001209250611857565b98975050505050505050565b5f80612fa8610f1c36869003860186614d75565b5f818152600460208181526040808420600380845294829020825160c081018452815481526001820154948101949094526002810154928401929092529381015460608301529182015460ff1615156080820181905260059092015460a082015292935090919061302a5750546301000000900462ffffff16915061114c9050565b601e82600101544261303c9190614f46565b101561305257505462ffffff16915061114c9050565b815461306b9086906301000000900462ffffff16611ef0565b93505f61307784613f49565b905061271061308b8262ffffff8816614f92565b6130959190614fbd565b94505f6130a18561405a565b90506127106130b58262ffffff8916614f92565b6130bf9190614fbd565b95505f6130ca6140a9565b90506127106130de8262ffffff8a16614f92565b6130e89190614fbd565b604085015186549198505f916127109161310d916301000000900462ffffff16614f92565b6131179190614fbd565b90508062ffffff168862ffffff16111561312f578097505b855462ffffff6301000000909104811690891610156131595785546301000000900462ffffff1697505b855462ffffff89811662ffffff198316811789554260018a01558b5160028a015591169081148015906131c85750613192600a82615229565b62ffffff168162ffffff168a62ffffff16116131b7576131b28a8361524e565b6131c1565b6131c1828b61524e565b62ffffff16115b1561321e575f6131d98b8787614106565b9050887f32713c2184c96143ae52f3f71db894a75faf0153a2ba4f64df320921ed7cc5d3838c848f5f01516040516132149493929190615269565b60405180910390a2505b505050505050505092915050565b5f82604001351215610b1f575f6132466040840135614f2c565b5f858152600d60205260409020546001600160801b039190911691508015612a63575f8161327661271085614f92565b6132809190614fbd565b9050610bb88111156132b4575f86815260046020526040812060030180546107d092906132ae908490614f59565b90915550505b505050505050565b5f6132c782600f0b90565b6001600160801b03166132da8360801d90565b6001600160801b03166132ed9190614f59565b9050683635c9adc5dea00000811115610b1f575f83815260046020526040812060030180546105dc9290613322908490614f59565b9091555050505050565b604080515f8082526020808301808552858352600c90915292902090516133539290614503565b5050565b606082602001516133a15760405162461bcd60e51b815260206004820152601460248201527311185d18481b9bdd081a5b9a5d1a585b1a5e995960621b6044820152606401610b16565b506040805183516020808301919091529093015115158382015260608084019290925280518084039092018252608090920190915290565b6001600160a01b0382165f9081526006602090815260408083208054825181850281018501909352808352919290919083018282801561343657602002820191905f5260205f20905b815481526020019060010190808311613422575b5050505050905080515f0361344b5750505050565b5f816001835161345b9190614f46565b8151811061346b5761346b6150ef565b602002602001015190505f60055f8381526020019081526020015f2090505f5f61349586600f0b90565b600f0b12156134b6576134a885600f0b90565b6134b1906152a2565b6134c0565b6134c085600f0b90565b6001600160801b03165f6134d48760801d90565b600f0b12156134f5576134e78660801d90565b6134f0906152a2565b6134ff565b6134ff8660801d90565b6001600160801b03166135129190614f59565b90505f61351e82613737565b80518455602001516001909301805460ff19169315159390931790925550505050505050565b5f61354f82600f0b90565b6001600160801b03166135628360801d90565b6001600160801b03166135759190614f59565b5f848152600d60205260409020549091508015610a35575f8161359a61271085614f92565b6135a49190614fbd565b90506107d0811115612a63575f85815260046020526040812060030180546103e892906135d2908490614f59565b90915550505050505050565b5f5f836040013513613605576135f76040840135614f2c565b6001600160801b0316613614565b82604001356001600160801b03165b5f858152600d60205260409020549091508015612a63575f8161363961271085614f92565b6136439190614fbd565b5f878152600c60209081526040822080546001810182558184529183209091018390559088905254909150606410156132b4575f5b5f878152600c602052604090205461369290600190614f46565b8110156136ff575f878152600c602052604090206136b1826001614f59565b815481106136c1576136c16150ef565b905f5260205f200154600c5f8981526020019081526020015f2082815481106136ec576136ec6150ef565b5f91825260209091200155600101613678565b505f868152600c6020526040902080548061371c5761371c6152cf565b600190038181905f5260205f20015f90559055505050505050565b6040805180820182525f80825260208083018290528351808501855282815281019190915282518084019093528383526001908301529061114c565b6040805180820182525f808252602080830182905283518085018552828152810191909152825180840190935263ffffffff841683526001908301529061114c565b5f5f5f8460200135126137cc5783602001356137d9565b6137d96020850135614f2c565b90505f5f6137e785600f0b90565b600f0b13613807576137f984600f0b90565b613802906152a2565b613811565b61381184600f0b90565b6001600160801b03169050683635c9adc5dea0000082111561383c576138396103e883614fbd565b92505b50509392505050565b5f5f83602001351261385b578260200135613868565b6138686020840135614f2c565b90505f5f61387684600f0b90565b600f0b136138965761388883600f0b90565b613891906152a2565b6138a0565b6138a083600f0b90565b6001600160801b031690505f8115613905578183116138e057826127106138c78285614f46565b6138d19190614f92565b6138db9190614fbd565b613902565b826127106138ee8483614f46565b6138f89190614f92565b6139029190614fbd565b90505b5f868152600c60209081526040822080546001810182558184529183209091018390559087905254606410156139ef575f5b5f878152600c602052604090205461395190600190614f46565b8110156139be575f878152600c60205260409020613970826001614f59565b81548110613980576139806150ef565b905f5260205f200154600c5f8981526020019081526020015f2082815481106139ab576139ab6150ef565b5f91825260209091200155600101613937565b505f868152600c602052604090208054806139db576139db6152cf565b600190038181905f5260205f20015f905590555b6139f886614239565b5f96875260046020526040909620600201959095555050505050565b5f5f836020013512613a2a578260200135613a37565b613a376020840135614f2c565b9050683635c9adc5dea00000811115610a355783807f7286c2c928d49381df1c03911196a7fd9740ed52e91205b5c0efb331bed27b5b613a78606485614fbd565b604080519182524260208301520160405180910390a350505050565b5f828152600e602052604081208054839290613ab1908490614f59565b90915550505050565b613ac48160801d90565b600f0b151580613adf5750613ad981600f0b90565b600f0b15155b1561335357505f90815260046020526040902042600190910155565b60208110610b1f575f613b1160208284866152e3565b612a639161530a565b604080518082019091525f80825260208201526114d98383614319565b613b5a60405180606001604052805f81526020015f81526020015f151581525090565b81515f906101f41015613b9057825161271090613b79906107d0614f92565b613b839190614fbd565b613b8d9082614f59565b90505b6103e883602001511115613bad57613baa6107d082614f59565b90505b5f613bb7856143ff565b9050613bc38183614f59565b91505f613bd3856060015161446c565b9050613bdf8184614f59565b92506127108311613bf05782613bf4565b6127105b8452613bff85614499565b60208501528351611d4c108015613c1b5750611f408460200151115b15156040850152509195945050505050565b6001600160a01b0382165f908152600a602052604081205460ff161561201a57505f61114c565b5f5f5f836020013512613c6b578260200135613c78565b613c786020840135614f2c565b9050683635c9adc5dea0000081118015613ca357505f84815260046020526040902060020154610bb8105b1561290a576103e891505061114c565b5f81815260046020526040812060028101546001909101548290613cd79042614f46565b9050603c81108015613cea57506107d082115b1561290a57506101f49392505050565b5f5f5f836020013512613d11578260200135613d1e565b613d1e6020840135614f2c565b5f858152600d6020526040812054919250819003613d40575f9250505061114c565b5f81613d4e61271085614f92565b613d589190614fbd565b90506103e8811115613d7957613d6f600282614fbd565b935050505061114c565b505f95945050505050565b5f8281526004602052604081206001015482908290613da39042614f46565b905061012c811115613dcb57612710613dbe83611f40614f92565b613dc89190614fbd565b91505b5f858152600c6020526040902054600a811015613dfe57612710613df184611b58614f92565b613dfb9190614fbd565b92505b7f00000000000000000000000000000000000000000000000000000000000000006001600160a01b03166364bdc67e6040518163ffffffff1660e01b81526004015f60405180830381865afa925050508015613e7b57506040513d5f823e601f3d908101601f19168201604052613e789190810190615327565b60015b613e9f57612710613e8e84611388614f92565b613e989190614fbd565b9250613ec7565b600381511015613ec557612710613eb885611770614f92565b613ec29190614fbd565b93505b505b6127108311613ed65782610b7b565b6127109695505050505050565b5f610bb8835f015111806114d957505069021e19e0c9bab240000010919050565b6040805180820182525f80825260208083018290528351808501855282815281019190915282518084019093526001600160401b03841683526001908301529061114c565b5f818152600c6020908152604080832080548251818502810185019093528083528493830182828015613f9957602002820191905f5260205f20905b815481526020019060010190808311613f85575b5050505050905080515f03613fb2575061271092915050565b5f5f90505f600a835111613fc7578251613fca565b600a5b90505f818451613fda9190614f46565b90505b835181101561401557838181518110613ff857613ff86150ef565b60200260200101518361400b9190614f59565b9250600101613fdd565b506140208183614fbd565b91506113888211156140385750613a98949350505050565b6107d082111561404e5750612ee0949350505050565b50612710949350505050565b5f818152600d6020526040812054683635c9adc5dea0000081101561408357506132c892915050565b69021e19e0c9bab240000081101561409f5750612af892915050565b5061271092915050565b5f8060186140b9610e1042614fbd565b6140c39190614fd0565b9050600d81101580156140d7575060108111155b806140ef5750600881101580156140ef5750600b8111155b156140fd57612af891505090565b61271091505090565b60608360400151156141425750604080518082019091526013815272151bde1a58c8199b1bddc819195d1958dd1959606a1b60208201526114d9565b83516113881015614177575060408051808201909152600d81526c48696768204d4556207269736b60981b60208201526114d9565b6127108311156141bb575060408051808201909152601a81527f4869676820766f6c6174696c6974792061646a7573746d656e7400000000000060208201526114d9565b6127108211156141ff575060408051808201909152601881527f4c6f77206c69717569646974792070726f74656374696f6e000000000000000060208201526114d9565b5060408051808201909152601c81527f4d61726b657420636f6e646974696f6e732061646a7573746d656e740000000060208201526114d9565b5f818152600c602090815260408083208054825181850281018501909352808352849383018282801561428957602002820191905f5260205f20905b815481526020019060010190808311614275575b5050505050905080515f036142a057505f92915050565b5f80805b8351811015614301575f6142b9826001614f59565b9050808583815181106142ce576142ce6150ef565b60200260200101516142e09190614f92565b6142ea9085614f59565b93506142f68184614f59565b9250506001016142a4565b505f811161430f575f610e33565b610e338183614fbd565b604080518082019091525f80825260208201528260200151801561433e575081602001515b6143835760405162461bcd60e51b815260206004820152601660248201527515985b1d595cc81b9bdd081a5b9a5d1a585b1a5e995960521b6044820152606401610b16565b8151835110156143d55760405162461bcd60e51b815260206004820152601860248201527f556e646572666c6f7720696e207375627472616374696f6e00000000000000006044820152606401610b16565b604080518082019091528251845182916143ee91614f46565b815260016020909101529392505050565b5f5f5f836020015112614416578260200151614424565b826020015161442490614f2c565b905068056bc75e2d63100000811115614446576144436103e883614f59565b91505b683635c9adc5dea00000811115614466576144636107d083614f59565b91505b50919050565b5f806144788342614f46565b9050614486603c6002614f92565b811115614466576144636101f483614f59565b5f5f8260600151426144ab9190614f46565b9050603c81116144bf576127109150614466565b6144cb603c6002614f92565b81116144db57611d4c9150614466565b5061138892915050565b5080545f8255600802905f5260205f2090810190611542919061454c565b828054828255905f5260205f2090810192821561453c579160200282015b8281111561453c578251825591602001919060010190614521565b506145489291506145ba565b5090565b5b80821115614548575f80825560018201805460ff19908116909155600283018290556003830180548216905560048301805468ffffffffffffffffff191690556005830180546001600160a01b03191690556006830191909155600782018054909116905560080161454d565b5b80821115614548575f81556001016145bb565b6001600160a01b0381168114611542575f5ffd5b5f602082840312156145f2575f5ffd5b81356114d9816145ce565b5f6020828403121561460d575f5ffd5b5035919050565b5f5f5f60608486031215614626575f5ffd5b8335614631816145ce565b9250602084013591506040840135614648816145ce565b809150509250925092565b5f60a08284031215614466575f5ffd5b5f60808284031215614466575f5ffd5b5f5f83601f840112614683575f5ffd5b5081356001600160401b03811115614699575f5ffd5b6020830191508360208285010111156146b0575f5ffd5b9250929050565b5f5f5f5f5f61016086880312156146cc575f5ffd5b85356146d7816145ce565b94506146e68760208801614653565b93506146f58760c08801614663565b92506101408601356001600160401b03811115614710575f5ffd5b61471c88828901614673565b969995985093965092949392505050565b602080825282518282018190525f918401906040840190835b81811015614764578351835260209384019390920191600101614746565b509095945050505050565b5f5f82840360e0811215614781575f5ffd5b8335925060c0601f1982011215614796575f5ffd5b506020830190509250929050565b5f60608284031215614466575f5ffd5b5f5f5f5f5f61014086880312156147c9575f5ffd5b85356147d4816145ce565b94506147e38760208801614653565b93506147f28760c088016147a4565b92506101208601356001600160401b03811115614710575f5ffd5b5f5f5f5f5f5f5f6101a0888a031215614824575f5ffd5b873561482f816145ce565b965061483e8960208a01614653565b955061484d8960c08a01614663565b9450610140880135935061016088013592506101808801356001600160401b03811115614878575f5ffd5b6148848a828b01614673565b989b979a50959850939692959293505050565b8035600281900b81146112ba575f5ffd5b5f5f5f5f61010085870312156148bc575f5ffd5b84356148c7816145ce565b93506148d68660208701614653565b925060c08501356148e6816145ce565b91506148f460e08601614897565b905092959194509250565b5f60a0828403121561490f575f5ffd5b6114d98383614653565b5f5f6040838503121561492a575f5ffd5b50508035926020909101359150565b5f81518084528060208401602086015e5f602082860101526020601f19601f83011685010191505092915050565b602081525f6114d96020830184614939565b5f61012082840312801561498b575f5ffd5b509092915050565b5f5f5f5f61014085870312156149a7575f5ffd5b6149b18686614653565b93506149c08660a08701614663565b92506101208501356001600160401b038111156149db575f5ffd5b6149e787828801614673565b95989497509550505050565b5f5f5f5f5f5f6101608789031215614a09575f5ffd5b8635614a14816145ce565b9550614a238860208901614653565b9450614a328860c089016147a4565b935061012087013592506101408701356001600160401b03811115614a55575f5ffd5b614a6189828a01614673565b979a9699509497509295939492505050565b5f5f5f5f5f5f6101208789031215614a89575f5ffd5b8635614a94816145ce565b9550614aa38860208901614653565b945060c0870135935060e087013592506101008701356001600160401b03811115614a55575f5ffd5b8151151581526101c081016020830151614aea602084018215159052565b506040830151614afe604084018215159052565b506060830151614b12606084018215159052565b506080830151614b26608084018215159052565b5060a0830151614b3a60a084018215159052565b5060c0830151614b4e60c084018215159052565b5060e0830151614b6260e084018215159052565b50610100830151614b7861010084018215159052565b50610120830151614b8e61012084018215159052565b50610140830151614ba461014084018215159052565b50610160830151614bba61016084018215159052565b50610180830151614bd061018084018215159052565b506101a0830151614be66101a084018215159052565b5092915050565b5f5f5f60e08486031215614bff575f5ffd5b8335614c0a816145ce565b9250614c198560208601614653565b915060c0840135614648816145ce565b5f82518060208501845e5f920191825250919050565b8015158114611542575f5ffd5b5f813561114c81614c3f565b813581556020820135600182015560408201356002820155606082013560038201556080820135614c8881614c3f565b60048201805460ff191660ff831515161790555060a09190910135600590910155565b8135815260208083013590820152604080830135908201526060808301359082015260c081016080830135614cdf81614c3f565b1515608083015260a092830135929091019190915290565b634e487b7160e01b5f52604160045260245ffd5b60405160a081016001600160401b0381118282101715614d2d57614d2d614cf7565b60405290565b604051601f8201601f191681016001600160401b0381118282101715614d5b57614d5b614cf7565b604052919050565b803562ffffff811681146112ba575f5ffd5b5f60a0828403128015614d86575f5ffd5b50614d8f614d0b565b8235614d9a816145ce565b81526020830135614daa816145ce565b6020820152614dbb60408401614d63565b6040820152614dcc60608401614897565b60608201526080830135614ddf816145ce565b60808201529392505050565b5f813561114c816145ce565b813581556020820135614e0981614c3f565b60018201805460ff191660ff8315151617905550604082013560028201556060820135614e3581614c3f565b60038201805460ff191660ff8315151617905550608082016004820181356001600160401b038116808214614e68575f5ffd5b82549150806001600160401b0319831617835560208401359350614e8b84614c3f565b68ffffffffffffffffff19919091161791151560401b68ff000000000000000016919091179055614ee5614ec160c08401614deb565b6005830180546001600160a01b0319166001600160a01b0392909216919091179055565b60e08201356006820155613353614eff6101008401614c4c565b6007830160ff1981541660ff8315151681178255505050565b634e487b7160e01b5f52601160045260245ffd5b5f600160ff1b8201614f4057614f40614f18565b505f0390565b8181038181111561114c5761114c614f18565b8082018082111561114c5761114c614f18565b818382375f9101908152919050565b5f60208284031215614f8b575f5ffd5b5051919050565b808202811582820484141761114c5761114c614f18565b634e487b7160e01b5f52601260045260245ffd5b5f82614fcb57614fcb614fa9565b500490565b5f82614fde57614fde614fa9565b500690565b614ffa828251805182526020908101511515910152565b6020818101518051604085015290810151151560608401525060408101516001600160401b0381511660808401526020810151151560a08401525060018060a01b0360608201511660c0830152608081015160e083015260a081015115156101008301525050565b602080825282518282018190525f918401906040840190835b818110156147645761508e838551614fe3565b60209390930192610120929092019160010161507b565b5f600182016150b6576150b6614f18565b5060010190565b5f602082840312156150cd575f5ffd5b6114d982614897565b5f602082840312156150e6575f5ffd5b6114d982614d63565b634e487b7160e01b5f52603260045260245ffd5b600282810b9082900b03627fffff198112627fffff8213171561114c5761114c614f18565b5f60a0828403128015615139575f5ffd5b50615142614d0b565b8251815260208084015190820152604080840151908201526060830151615168816145ce565b60608201526080928301519281019290925250919050565b5f6060828403128015615191575f5ffd5b50604051606081016001600160401b03811182821017156151b4576151b4614cf7565b60405282356151c281614c3f565b81526020838101359082015260408301356151dc816145ce565b60408201529392505050565b6151f28185614fe3565b6101406101208201528161014082015281836101608301375f81830161016090810191909152601f909201601f1916010192915050565b5f62ffffff83168061523d5761523d614fa9565b8062ffffff84160491505092915050565b62ffffff828116828216039081111561114c5761114c614f18565b62ffffff8516815262ffffff84166020820152608060408201525f6152916080830185614939565b905082606083015295945050505050565b5f81600f0b6f7fffffffffffffffffffffffffffffff1981036152c7576152c7614f18565b5f0392915050565b634e487b7160e01b5f52603160045260245ffd5b5f5f858511156152f1575f5ffd5b838611156152fd575f5ffd5b5050820193919092039150565b8035602083101561114c575f19602084900360031b1b1692915050565b5f60208284031215615337575f5ffd5b81516001600160401b0381111561534c575f5ffd5b8201601f8101841361535c575f5ffd5b80516001600160401b0381111561537557615375614cf7565b8060051b61538560208201614d33565b918252602081840181019290810190878411156153a0575f5ffd5b6020850194505b8385101561147657845192506153bc836145ce565b828252602094850194909101906153a756fea26469706673582212201e2874a23226b87c1bb59d4c29dd4278af173e23c91f9878b99ef42cad7e4efe64736f6c634300081b0033","linkReferences":{}},"methodIdentifiers":{"addAuthorizedManager(address)":"00497e76","afterAddLiquidity(address,(address,address,uint24,int24,address),(int24,int24,int256,bytes32),int256,int256,bytes)":"9f063efc","afterDonate(address,(address,address,uint24,int24,address),uint256,uint256,bytes)":"e1b4af69","afterInitialize(address,(address,address,uint24,int24,address),uint160,int24)":"6fe7e6eb","afterRemoveLiquidity(address,(address,address,uint24,int24,address),(int24,int24,int256,bytes32),int256,int256,bytes)":"6c2bbe7e","afterSwap(address,(address,address,uint24,int24,address),(bool,int256,uint160),int256,bytes)":"b47b2fb1","authorizedManagers(address)":"0a3cb21b","beforeAddLiquidity(address,(address,address,uint24,int24,address),(int24,int24,int256,bytes32),bytes)":"259982e5","beforeDonate(address,(address,address,uint24,int24,address),uint256,uint256,bytes)":"b6a8b0fa","beforeInitialize(address,(address,address,uint24,int24,address),uint160)":"dc98354e","beforeRemoveLiquidity(address,(address,address,uint24,int24,address),(int24,int24,int256,bytes32),bytes)":"21d0ee70","beforeSwap(address,(address,address,uint24,int24,address),(bool,int256,uint160),bytes)":"575e24b4","calculateDynamicFee((address,address,uint24,int24,address))":"929f8dad","dynamicFees(bytes32)":"8258beec","eigenAVS()":"c326bf92","emergencyPausePool(bytes32)":"0858882b","emergencyPaused(bytes32)":"e9d4f4b7","emergencyRecover(address,uint256,address)":"086f93a8","encryptLPPosition((address,address,uint24,int24,address),(int24,int24,int256,bytes32),bytes)":"a83d2fda","getCurrentMEVRiskScore(bytes32)":"be4bbcf3","getDynamicFeeData(bytes32)":"a7e912af","getEncryptedPosition(bytes32,bytes32)":"994e7e2f","getHookPermissions()":"c4e833ce","getMEVProtectionConfig(bytes32)":"0129dad3","getPoolHealthMetrics(bytes32)":"821401fb","getUserPositions(address)":"2a6bc2dd","getVolatilityHistory(bytes32)":"7e15bab6","isMEVProtectionEnabled(bytes32)":"db02d494","mevConfigs(bytes32)":"5eb710c3","mevRewardsPool(bytes32)":"9d1743c5","owner()":"8da5cb5b","pause()":"8456cb59","paused()":"5c975abb","poolManager()":"dc4c90d3","removeAuthorizedManager(address)":"dd99d123","renounceOwnership()":"715018a6","resumePool(bytes32)":"9a956782","submitEncryptedOrder(((uint256,bool),(uint256,bool),(uint64,bool),address,bytes32,bool))":"a2000daa","totalEncryptedLiquidity(bytes32)":"c1fd1581","transferOwnership(address)":"f2fde38b","unpause()":"3f4ba83a","updateMEVProtectionConfig(bytes32,(uint256,uint256,uint256,uint256,bool,uint256))":"48a90f10"},"id":108}